:020000040000FA
:0600000032EF06F01200D1
:020006001200E6
:060008000EEF00F01200F3
:02000E000100EF
:0C0010009C0C0000C00000002500000057
:04001C00DACFE4FF54
:10002000E2CFDAFFE9CFE4FFEACFE4FFF6CFE4FF67
:10003000F7CFE4FFF8CFE4FFF5CFE4FFF3CFE4FF21
:10004000F4CFE4FFFACFE4FFFBCFE4FF00EE06F0CD
:10005000020EE80403E3EECFE4FFFBD700EE00F06E
:10006000040EE80403E3EECFE4FFFBD7E652D9CF5A
:10007000E6FFE1CFD9FF020EE1269EAA41D10001A1
:10008000CF2B000ED023AECFF1F0AB50020B03E12B
:10009000AB50040B0BE00001F16BAB98AB88000197
:1000A000E251E22B030807E2E26B05D00001EFBF4B
:1000B00002D0F1C0ADFF0001F15104E1010E0001D9
:1000C000D86FD96B3F0E0001F15D07E10001E12B14
:1000D000E151090804E20001EF8F0001E16B00012A
:1000E000F1AF23D03F0EF115E66ED8C0E9FFD9C0BD
:1000F000EAFFD890E936EA36C30EE926000EEA2276
:10010000E552E750EE6EED6A0001D82B000ED923C0
:10011000D93501E3F5D0D8510608000ED95501E3D1
:10012000EFD0010ED86FD96BEBD0010E0001D86F64
:10013000D96B0F0EC515046E056A060ED8900436ED
:100140000536E804FBE104500001C7250001F26F09
:1001500005500001C8210001F36FF1510001C36F88
:10016000C46BC051690A01E1A1D01C0A01E184D02D
:10017000130A68E0030A4CE0170A01E0BFD0D12B54
:10018000D151020802E20001EF950001F3353EE291
:10019000F2519008010EF35539E2D890F35104E67C
:1001A000200EF25D030EF35931E2EF850001D16BB1
:1001B000E3510001F25D046EF3510001E455056E58
:1001C00004C0DEFFDD6EDECF04F0DDCF05F0800E73
:1001D00005140AE0DECFEDF0DDCFEEF00001ED6DAD
:1001E000EE1F000EEE2304D0DECFEDF0DDCFEEF0FB
:1001F000F2C0E3F0F3C0E4F00001ED51EB5DEE512D
:10020000EC5904E3EFA17AD08A9078D08A8076D036
:10021000D22BD251020802E20001EF970001F33520
:100220006DE2F251C808000EF35568E2D890F35120
:1002300004E6840EF25D030EF35960E2EF870001DD
:10024000D26B5CD0D32BD351020802E20001EF99AC
:100250000001F33553E2F2512C08010EF3554EE242
:10026000D890F35104E6840EF25D030EF35946E292
:10027000EF890001D36B42D0D42BD451020802E2A3
:100280000001EF9B0001F33539E2F251BC08020E88
:10029000F35534E2D890F35104E61A0EF25D040EE1
:1002A000F3592CE2EF8B0001D46B28D00001EF83CF
:1002B0000001D52BD551020802E20001EF9D00019B
:1002C000F3351CE2F2512C08010EF35517E2D890D9
:1002D000F35104E6BC0EF25D020EF3590FE2EF8D0E
:1002E0000001D56B0001EFBB07D00001D751D72B20
:1002F000030804E2899802D00001D76BF1C0C0F076
:100300009EA007D09E905CDA0001D65102E1000168
:10031000EF83F2A49ED0F2945CDA00010A0ED8803A
:10032000CF55000ED05505E2010ED66FCF6BD06BC6
:1003300008D0D66B0001EF9DEF9BEF99EF97EF95FB
:100340008A800001E951EA1135E0E551010B01E035
:10035000F071E551020B06E0F051010B02E0F09361
:1003600001D0F083E551040B01E0F075E551080B75
:1003700006E0F051040B02E0F09701D0F087E55160
:10038000100B01E0F079E551200B06E0F051100B65
:1003900002E0F09B01D0F08BE551400B01E0F07DD5
:1003A000E551800B27E0F051400B02E0F09F22D096
:1003B000F08F20D0E551010B01E0F071E551020B07
:1003C00001E0F073E551040B01E0F075E551080B15
:1003D00001E0F077E551100B01E0F079E551200BD9
:1003E00001E0F07BE551400B01E0F07DE551800B31
:1003F00001E0F07F0001E0510001F05D2AE0F0A192
:1004000002D0899001D08980F0A302D0899201D0D6
:100410008982F0A502D0899401D08984F0A702D006
:10042000899601D08986F0A902D08A9C01D08A8C55
:10043000F0AB02D08A9E01D08A8EF0AD02D0899CAA
:1004400001D0898CF0AF02D08A9A01D08A8AF0C09C
:10045000E0F0020EE15C02E2E16AE552E16EE55293
:10046000E7CFD9FFE55200EE03F0040EE80403E302
:10047000E5CFEDFFFBD700EE07F0020EE80403E343
:10048000E5CFEDFFFBD7E5CFFBFFE5CFFAFFE5CFEB
:10049000F4FFE5CFF3FFE5CFF5FFE5CFF8FFE5CFBC
:1004A000F7FFE5CFF6FFE5CFEAFFE5CFE9FFE5CFC0
:1004B000DAFF11000001EFA3B1D0EF51400B01E0D2
:1004C000010E036EEF51200B01E0010E026EEF51A1
:1004D000100B01E0010E016EEF51080B01E0010E5F
:1004E000006EEF51040B01E0010E00140114021420
:1004F00003141DE0EE3504E2ED511E08000EEE552A
:1005000016E3E66A010EE66E53D9E66A010E78D963
:10051000020E7BD9030E74D9040E77D9050E70D95B
:10052000060E73D9070E3DD90001EF8152D0EF912D
:10053000480E086EEE0E096EEFAB08D0010EE66EA7
:10054000E66E36D9E66A010E64D907D0010EE66E72
:10055000E66A2ED9010EE66E24D90001EFAD08D06F
:10056000010EE66EE66E040E50D9050E52D907D084
:10057000010EE66EE66A040E43D9050E12D900019B
:10058000EFA708D0010EE66EE66E020E3ED9030E0E
:1005900040D907D0010EE66EE66A020E31D9030E8D
:1005A00000D90001EFA908D0010EE66EE66E060E36
:1005B0002CD9070E2ED907D0010EE66EE66A060E7C
:1005C0001FD9070EEED8F29E08C0C1F009C0C2F0D4
:1005D000F28E0001EF93EF51400B400A01E0010E53
:1005E000036EEF51200B200A01E0010E026EEF5165
:1005F000100B100A01E0010E016EEF51080B080A02
:1006000001E0010E006EEF51040B040A01E0010E3F
:10061000001401140214031401E08988F36AF46AD7
:100620001200F29EDFD81EE1ACA2FED70D0EAD6E19
:10063000ACA2FED70A0EAD6EACA2FED74E0EAD6ECA
:10064000ACA2FED74F0EAD6EACA2FED7520EAD6E71
:10065000ACA2FED74D0EAD6E050E0001EB6FEC6B3C
:10066000440E1BD0010E0001EB6FEC6B0D0EAD6E56
:10067000ACA2FED70A0EAD6EACA2FED7460EAD6E92
:10068000ACA2FED7490EAD6EACA2FED74E0EAD6E3B
:10069000ACA2FED7450EAD6E3F0EE66E000EE66EC6
:1006A000E66A58EC05F0E552E552E5524BEC06F0EF
:1006B000F28E0001EF9F8988EB5112007F0EC16E10
:1006C000D08E926A120E936E89908992899489963F
:1006D0008A9C8A9E899C8A9A8A908998A6EC04F0C2
:1006E0000001480EC16FEE0EC26F950EE66E06EC6D
:1006F00006F0E5526ED8E50EE66EADEC05F0E5527B
:100700005FD88A962A0EE66EE66A7C0EE66E13ECD9
:1007100005F0E552E552E552AA86AC84B06A2A0E8D
:10072000AF6EF28AF1849D809F8002D8F28E120013
:100730000001EF93EF91EF9F050EEB6FEC6B52D83A
:1007400004E1010E0001EB6FEC6BACA2FED7460E8C
:10075000AD6EACA2FED7470EAD6EACA2FED7420E78
:10076000AD6EACA2FED7400EAD6EACA2FED74D0E64
:10077000AD6EACA2FED7430EAD6EACA2FED7480E56
:10078000AD6EACA2FED7500EAD6EACA2FED700018E
:10079000EB51120093DF8EDE0001EFAFFCD741DF9B
:1007A000FAD7E66E0CEC04F0E552E552E552120081
:1007B000E66A0CEC04F0E552E552E552E66A1200F6
:1007C000B20EE66EE70EE66ECEEC05F0E552E552AF
:1007D0001200C1C0E6FFC2C0E6FFEAEC05F0E55238
:1007E000E5521200000EE66EE66A8BEC05F0E5526B
:1007F000E5523F081200C40E085E090E095A1200A5
:10080000D0DFE66A010EE66E1200CBDFE66AE66A2A
:080810001200C7DFFBEF03F04B
:08081800A3D8070869E3FD0EF7
:10082000DB5010E0A4D802E0ABD8FEE1F350F31C9B
:10083000006E016A00BE016800500001E717015018
:10084000E8170ED094D802E09BD8FEE1F350006E7A
:10085000016A00BE016800500001E7130150E8136F
:10086000FC0EDB500FE083D802E08AD8FEE1F350A3
:10087000006E016A00BE016800500001E5130150DE
:10088000E61336D074D802E07BD8FEE1F350F31CB7
:10089000006E016A00BE016800500001E5170150BA
:1008A000E61765D802E06CD8FEE1F350F31C0001B6
:1008B000F017FE0EDB50E7C002F0E8C003F005E0E1
:1008C000D89003320232E804FBE1010E0216000E5A
:1008D0000316FE0EDB5002C000F003C001F005E07D
:1008E000D89000360136E804FBE100500001F01317
:1008F0000001F05141D034D8E5C000F0E6C001F06D
:1009000005E0D89001320032E804FBE1010E00144A
:1009100033D0D9CFE6FFE1CFD9FFE652E9C0DFFF00
:10092000FE0EDB500001E96FEA6BDF50E55224D088
:1009300017D8E7C000F0E8C001F005E0D890013218
:100940000032E804FBE1010E001416D00001F0694A
:100950000001E56BE66BE76BE86BE96BEA6B120095
:10096000D9CFE6FFE1CFD9FFFE0EDB501200010E1A
:10097000F36EFE0EDB501200E552E7CFD9FF1200F6
:08098000D890F336E8061200DE
:080988000E0EF66E000EF76E74
:10099000000EF86E00010900F550F96F0900F550DE
:1009A000FA6F03E1F96701D03DD00900F550F46F0B
:1009B0000900F550F56F0900F550F66F09000900C0
:1009C000F550E96E0900F550EA6E090009000900CA
:1009D000F550F76F0900F550F86F09000900F6CFE0
:1009E000FBF0F7CFFCF0F8CFFDF0F4C0F6FFF5C058
:1009F000F7FFF6C0F8FF0001F75302E1F85307E0F4
:100A00000900F550EE6EF707F8E2F807F9D7FBC0DA
:100A1000F6FFFCC0F7FFFDC0F8FF0001F907000E6C
:060A2000FA5BBFD71200D3
:0A0A2600D9CFE6FFDACFE6FFE1CFFB
:100A3000D9FFE2CFDAFFAC6AAB6AFD0EDBB0AC885F
:100A4000DBA202D0AC8CAB8CDBB4AC8EDBA602D0CC
:100A5000AB8801D0AB8ADBB8AC849E98DBBAAB869E
:100A6000DBAC02D09D8A01D09D9A9E9ADBAE02D06B
:100A70009D8801D09D98FB0EDB50AF6EFB0EFC0EE7
:100A8000DBCF01F001C000F0016A0050B06EAC8A0B
:100A9000AB8E93929388AC50100B04E0AC50800B5B
:100AA00001E19382E552E5CFDAFFE7CFD9FF1200EB
:100AB000D9CFE6FFDACFE6FFE1CFD9FFE2CFDAFF09
:100AC000E652DF6AFF0EE76EFC0EDBCF00F0E75068
:100AD00000160050A96EFB0EDB50A86EA69EA69CC9
:100AE000A684F250800B01E0010EDF6EF29E550EDF
:100AF000A76EAA0EA76EA682A6B2FED7DF50E8B0F8
:100B0000F28EE8A0F29EA694E552E552E5CFDAFF18
:060B1000E7CFD9FF12003F
:0A0B1600D9CFE6FFDACFE6FFE1CF0A
:100B2000D9FFE2CFDAFFFF0EE76EFC0EDBCF00F05D
:100B3000FD0EDBCF01F0E7500016016A0050A96EF0
:100B4000A69CA69EA68000000000A85000D0E552FA
:0A0B5000E5CFDAFFE7CFD9FF12006E
:060B5A00D9CFE6FFDACF5F
:100B6000E6FFE1CFD9FFE2CFDAFFFD0EDB507E0BCF
:100B7000CD6EFD0EDBAC02D0CD8E01D0CD9ECF6A06
:100B8000CE6A9E90DBAE02D09D8001D09D90CD803C
:0C0B9000E552E5CFDAFFE7CFD9FF1200F5
:040B9C00D9CFE6FFC8
:100BA000DACFE6FFE1CFD9FFE2CFDAFFE652E65235
:100BB000FC0EDBCFDEFFDBCFDDFF010EDB50CF6EA7
:100BC000DF50CE6EE552E552E552E5CFDAFFE7CFD2
:040BD000D9FF120037
:0C0BD400D9CFE6FFDACFE6FFE1CFD9FF72
:100BE000E2CFDAFFE652E652FC0EDBCFDEFFDBCFD0
:100BF000DDFF010EDB50D76EDF50D66EE552E552B9
:0C0C0000E552E5CFDAFFE7CFD9FF120084
:040C0C00D9CFE6FF57
:100C1000DACFE6FFE1CFD9FFE2CFDAFFFD0EDB50FE
:100C20007F0BD56ED76AD66AF294FD0EDBAE02D08A
:100C3000F28A01D0F29AD58EE552E5CFDAFFE7CFFE
:040C4000D9FF1200C6
:0C0C4400000EF36E00EE00F0010E01D86F
:100C50001200EA6002D0EE6AFCD7F350E96012009D
:040C6000EE6AFCD765
:0C0C640010EE80F020EE80F0F86A079C93
:100C7000C4EC04F003EC00F0CAEC03F0FBD7120064
:100C800031303A34393A35370041707220333020F0
:050C9000323031340098
:060C9600A6B2FED7120019
:040C9C0000DC8500F3
:100CA0000000000000000000000000000000000044
:100CB000000000000100890C00800C00FF00000013
:010CC0000033
:020000040030CA
:01000100C539
:010002000FEE
:010003001EDE
:01000500807A
:010006008178
:0100080000F7
:01000900C036
:01000A0003F2
:01000B00E014
:01000C0003F0
:01000D0040B2
:00000001FF
