:020000040000FA
:06000000CAEF06F0120039
:020006001200E6
:06000800DDEF02F0120022
:02000E000200EE
:10001000DE0D0000F500000008000000D70D000014
:08002000FD00000001000000DA
:08002800D9CFE6FFE1CFD9FFBB
:10003000050EE1260001F751030A5AE0010A39E0F2
:10004000030A24E0010A01E009D161EC03F0000198
:10005000010EF76F060EE66EE66AC50E0B6E0D0E0C
:100060000C6E0D6A0BC0E6FFE66E0DC0E6FFCF0E0C
:10007000E66E000EE66E16EC04F00E6E070EE15E04
:100080000E50F3CFF5F0F4CFF6F0E8D0E66A71EC5D
:1000900003F0E552D880010E0454000E88D901E324
:1000A000DDD0898289800001CB6BCC6B0001020E10
:1000B0001BD064D901E3D2D0ACA2FED70001CB5152
:1000C000EA6ACF0FE96E000EEA22EF50AD6ECB2B3D
:1000D0000001F5510001CB5D000E0001F655ECE387
:1000E000ACA2FED70001030EF76F69EC03F0B6D0A7
:1000F00045D901E3B3D089908992070E0001F56FCD
:10010000F66BE8500001CC5D000E0001F65501E2EF
:1001100090D00001CF0501E08CD0030ED05D01E04E
:1001200088D0F5C00BF0F6C00CF0020E0B5E000E8E
:100130000C5A0BC0E6FF0CC0E6FFCF0EE66E000EB9
:10014000E66E36EC04F0E552E552E552E552DE5239
:10015000F3CFDEFFF4CFDDFFDD52F5C0E9FFF6C0DF
:10016000EAFF020EE95E1CD9EFCF0DF00DC00EF0D4
:100170000D6AF5C0E9FFF6C0EAFFE90611D9EFCF35
:100180000FF0FF0E0F1400010D100B6E030E0BC0CD
:10019000DBFF040E0EC0DBFF010EDBCF0BF0020E07
:1001A000DBCF0CF0030EDB500B1833E1040EDB50F9
:1001B0000C182FE1D3C0DFFFDF5023E0DFCFE6FFD5
:1001C000BEEC03F0E552DF50060A18E0030A13E024
:1001D000010A0EE0070A09E0010A04E0030A00012F
:1001E000640E15D00001780E12D000018C0E0FD0D5
:1001F0000001A00E0CD00001B40E09D00001C80E01
:1002000006D0E668BEEC03F0E55200014A0EFC6F32
:1002100009D0102A000E112212221322E66ABEEC27
:1002200003F0E552FCC0CDF00001B2D80001F76B3D
:1002300015D0E66A86EC03F0E552D880D00E04545F
:10024000070EB5D80BE2020EE66EBEEC03F0E552E7
:100250000001F76B0001F00ECD6F9AD8000E0B6E07
:10026000050EE15C02E2E16AE552E16E0B50E552F7
:10027000E7CFD9FF1200F29E000EE66EE66A0BECA5
:1002800006F0E552E5523F0802E1440E01D03F0E70
:10029000E66E000EE66EE66AC1EC05F0E552E55248
:1002A000E552ECEC06F0F28E0001CA91000C000160
:1002B000CA958A941C0ED05C01E0CA85FC50800B64
:1002C00003E1FC50400B03E0CA85FC9EFC9CCAB5D0
:1002D0008A847F0EC16ED08E100E926E120E936EB7
:1002E000F19E8A90C86BE66ABEEC03F0E552950E6B
:1002F000E66E86EC06F0E552E80EE66E670EE66EF8
:100300006AEC06F0E552E552E50EE66E2DEC06F0DD
:10031000E552600EE66EF60EE66E4EEC06F0E55225
:10032000E552410EE66EA2EC06F0E5520001F00E39
:10033000CD6F2ED8FC0EE66E3F0EE66EA9EC04F0F3
:10034000E552E552400EE66EE66A6C0EE66E4DEC46
:1003500005F0E552E552E552AA96AC94B06A400E1B
:10036000AF6EF28AF1849D809F8002D8F28E1200D7
:100370000001CA91000C9BDF57DEFED7E66A86ECCF
:1003800003F0E552D880030E0454000ED7EF01F0BD
:10039000CD51E66EE66A92EC05F0E552E5521200A8
:1003A000000EEA5ACF0EE926000EEA22120005548A
:0A03B000000E0654000E0754120060
:0603BA0000C1814001C0FA
:1003C000804101C0804100C1814001C0804100C125
:1003D000814000C1814001C0804101C0804100C115
:1003E000814000C1814001C0804100C1814001C005
:1003F000804101C0804100C1814001C0804100C1F5
:10040000814000C1814001C0804100C1814001C0E4
:10041000804101C0804100C1814000C1814001C0D4
:10042000804101C0804100C1814001C0804100C1C4
:10043000814000C1814001C0804101C0804100C1B4
:10044000814000C1814001C0804100C1814001C0A4
:10045000804101C0804100C1814000C1814001C094
:10046000804101C0804100C1814001C0804100C184
:10047000814000C1814001C0804100C1814001C074
:10048000804101C0804100C1814001C0804100C164
:10049000814000C1814001C0804101C0804100C154
:1004A000814000C1814001C0804100C1814001C044
:1004B000804101C0804100C1814000C0C101C3032F
:1004C00002C2C60607C705C5C404CC0C0DCD0FCFAC
:1004D000CE0E0ACACB0BC90908C8D81819D91BDB1C
:1004E000DA1A1EDEDF1FDD1D1CDC14D4D515D7176C
:1004F00016D6D21213D311D1D010F03031F133F31C
:10050000F23236F6F737F53534F43CFCFD3DFF3F6B
:100510003EFEFA3A3BFB39F9F83828E8E929EB2B9B
:100520002AEAEE2E2FEF2DEDEC2CE42425E527E72B
:10053000E62622E2E323E12120E0A06061A163A39B
:10054000A26266A6A767A56564A46CACAD6DAF6F2B
:100550006EAEAA6A6BAB69A9A86878B8B979BB7B9B
:100560007ABABE7E7FBF7DBDBC7CB47475B577B7EB
:10057000B67672B2B373B17170B05090915193531B
:10058000529296565797559594549C5C5D9D5F9FEB
:100590009E5E5A9A9B5B99595898884849894B8B1B
:1005A0008A4A4E8E8F4F8D4D4C8C448485458747AB
:0A05B0004686824243834181804069
:0605BA00DACFE4FFE2CFFE
:1005C000DAFFE9CFE4FFEACFE4FFF6CFE4FFF7CFAD
:1005D000E4FFF5CFE4FFF3CFE4FFF4CFE4FFFACF7D
:1005E000E4FF00EE00F00B0EE80403E3EECFE4FFBF
:1005F000FBD7E6529EAA21D0AECFCEF0AB50020B75
:1006000003E1AB50040B0BE00001CE6BAB98AB8861
:100610000001FD51FD2B030810E2FD6B0ED000011F
:10062000CC51EA6ACF0FE96E000EEA22CEC0EFFF8E
:10063000CC2B140ECC5D01E3CC6B9EA00FD09E9012
:10064000600EE66EF60EE66E4EEC06F0E552E552F2
:100650000001C02B000EC123C223C323F2A411D07A
:10066000F294E80EE66E670EE66E6AEC06F0E5526E
:10067000E5520001C42B000EC523C623C723C82B97
:100680005AD89EB29E929EB49E94E55200EE0AF015
:100690000B0EE80403E3E5CFEDFFFBD7E5CFFAFF50
:1006A000E5CFF4FFE5CFF3FFE5CFF5FFE5CFF7FFAB
:1006B000E5CFF6FFE5CFEAFFE5CFE9FFE5CFDAFFCB
:1006C0001100F29E0001C46BC56BC66BC76BF28E46
:1006D0001200F29E0001C06BC16BC26BC36BF28E45
:1006E000120060D80AE1F29EC4C0EDF0C5C0EEF081
:1006F000C6C0EFF0C7C0F0F0F28EEDC004F0EEC05F
:1007000005F0EFC006F0F0C007F053D04BD80AE177
:10071000F29EC0C0F1F0C1C0F2F0C2C0F3F0C3C09D
:10072000F4F0F28EF1C004F0F2C005F0F3C006F070
:10073000F4C007F03ED00001C9510B6E0C6AFF0EE9
:100740000B1804E10C5002E18A8006D0C95103E085
:10075000C951080803E28A90C86B1200C851080802
:100760000CE2C951E824080F0B6EC851D8800B5415
:1007700003E3C86B8A9012008A70120013D808082D
:100780000BE2FE0EDB500B6E0C6AFF0E0B1801E144
:100790000C5002E0FE0EDB6AF29EFE0EDBCFC9F0CB
:1007A000F28E07D0D9CFE6FFE1CFD9FFFE0EDB50A6
:0A07B0001200E552E7CFD9FF120056
:0607BA00C2D8020EE12688
:1007C000FB0EDBCFE6FFFC0E9FD850D8E552E5527A
:1007D000E552E552F3CFDEFFF4CFDDFFDECF0DF0C3
:1007E000DDCF0EF00EC00DF00E6AA2D801E3DB2AB9
:1007F00094D8DECF0DF0DDCF0EF0FF0E0D16000EFB
:100800000E1696D801E3DB2A88D8FB0EDBCF0BF05F
:10081000FC0EDBCF0CF00BC0F3FF0CC0F4FF020E9C
:10082000E15C02E2E16AE552E16E8FD089D8F80E10
:10083000DBCFE6FFF90EDBCFE6FFFA0EDBCFE6FFFC
:10084000FB0EDBCFE6FFFC0E5FD8E8EC05F00B6E8D
:10085000070EE15E0B50F80EDBCFE6FFF90E54D821
:10086000ACDFE552E552E552E5526FD069D8030E90
:10087000E126DF68010EDB68FB0EDBCF0BF0DB0649
:10088000FC0EDBCF0CF001E2DB060B500C102AE073
:10089000FD0EDBCFE9FFDB2AFE0EDBCFEAFF01E333
:1008A000DB2AEF50DF18E76E020EE7CFDBFF010E09
:1008B000DBCFE6FF020EDB50F76ABA0FF66E030ECF
:1008C000F7220800F550E552E718DF6E020EDB5004
:1008D000F76ABA0FF66E040EF7220800010EF5CF84
:1008E000DBFFCAD7DFCF0DF00DC00EF00D6A010E91
:1008F000DB500D10F36E0EC0F4FF030EE15C02E25C
:10090000E16AE552E16E21D0DBCFE6FFFD0EDBCFE1
:10091000E6FFFE0EDBCFE6FF1200FD0EDB500B24E0
:10092000E96EFE0EDB500C20EA6E0DC0EFFF1200E8
:10093000FB0EDBCF0BF0DB2AFC0EDBCF0CF0120042
:10094000D9CFE6FFE1CFD9FF1200E552E7CFD9FFBB
:02095000120093
:0E095200D9CFE6FFDACFE6FFE1CFD9FFE2CF43
:10096000DAFFE652E652E652F8CF01F0F6CF02F097
:10097000FD0EDB80DB82DB84DB86DB88DB8AFC0E22
:10098000DB84DB86DB88DB8ADB8CDB8EFD0EDBCF5A
:10099000E6FFC00EBD10E552E714BD6EFC0EDBCFC6
:1009A000E6FF0F0EBD10E552E714BD6E3F0E0B6E55
:1009B000FD0EDB500B5C02E1939613D0FD0EDB5075
:1009C000BF0803E1939693940CD0FD0EDB507F0893
:1009D00004E0FD0EDB50FF0804E193969394939C92
:1009E000939E01C0F8FF02C0F6FFE552E552E552C2
:0C09F000E552E5CFDAFFE7CFD9FF120097
:0409FC000E0EF66E77
:100A0000000EF76E000EF86E00010900F550E86F59
:100A10000900F550E96F03E1E86701D03DD0090016
:100A2000F550E36F0900F550E46F0900F550E56FEC
:100A300009000900F550E96E0900F550EA6E090059
:100A400009000900F550E66F0900F550E76F09004D
:100A50000900F6CFEAF0F7CFEBF0F8CFECF0E3C007
:100A6000F6FFE4C0F7FFE5C0F8FF0001E65302E13E
:100A7000E75307E00900F550EE6EE607F8E2E707F6
:100A8000F9D7EAC0F6FFEBC0F7FFECC0F8FF0001B2
:0A0A9000E807000EE95BBFD7120073
:060A9A00D9CFE6FFDACF20
:100AA000E6FFE1CFD9FFE2CFDAFFAC6AAB6AFD0E19
:100AB000DBB0AC88DBA202D0AC8CAB8CDBB4AC8EF0
:100AC000DBA602D0AB8801D0AB8ADBB8AC849E98A1
:100AD000DBBAAB86DBAC02D09D8A01D09D9A9E9A90
:100AE000DBAE02D09D8801D09D98FB0EDB50AF6E2F
:100AF000FB0EFC0EDBCF0CF00CC00BF00C6A0B50A5
:100B0000B06EAC8AAB8E93929388AC50100B04E01D
:100B1000AC50800B01E19382E552E5CFDAFFE7CFDD
:040B2000D9FF1200E7
:0C0B2400D9CFE6FFDACFE6FFE1CFD9FF22
:100B3000E2CFDAFFE652E652FC0EDBCF0BF0FD0E01
:100B4000DBCF0CF0060ED8900B360C36E804FBE138
:100B50000BC0DEFF0CC0DDFF010EDB50BE6EDF50B0
:100B6000E840E8403F0B300B0B6ECF0EBD140B106E
:100B7000BD6EE552E552E552E5CFDAFFE7CFD9FF8A
:020B8000120061
:0E0B8200D9CFE6FFDACFE6FFE1CFD9FFE2CF11
:100B9000DAFFFF0EE76EFC0EDBCF0BF0E7500B1613
:100BA0000B50A96EFB0EDB50A86EA69EA69CA684D9
:100BB000F29E550EA76EAA0EA76EA682A6B2FED70B
:100BC000F28EA694E552E5CFDAFFE7CFD9FF120007
:100BD000FB0EE3CFF6FFFC0EE3CFF7FFFD0EE3CFF6
:100BE000F8FFFE0EE3CFE9FFFF0EE3CFEAFFE9CF08
:100BF000F3FFEACFF4FFF90EE35003E1FA0EE350FE
:100C000009E0F90EE30602E2FA0EE3060900F5CF69
:060C1000EEFFF1D7120017
:0A0C1600D9CFE6FFDACFE6FFE1CF09
:100C2000D9FFE2CFDAFFFF0EE76EFC0EDBCF0BF051
:100C3000FD0EDBCF0CF0E7500B160C6A0B50A96EC3
:100C4000A69CA69EA68000000000A85000D0E552F9
:0A0C5000E5CFDAFFE7CFD9FF12006D
:060C5A00D9CFE6FFDACF5E
:100C6000E6FFE1CFD9FFE2CFDAFFFD0EDB507E0BCE
:100C7000CD6EFD0EDBAC02D0CD8E01D0CD9ECF6A05
:100C8000CE6A9E90DBAE02D09D8001D09D90CD803B
:0C0C9000E552E5CFDAFFE7CFD9FF1200F4
:040C9C00D9CFE6FFC7
:100CA000DACFE6FFE1CFD9FFE2CFDAFFE652E65234
:100CB000FC0EDBCFDEFFDBCFDDFF010EDB50CF6EA6
:100CC000DF50CE6EE552E552E552E5CFDAFFE7CFD1
:040CD000D9FF120036
:0C0CD400D9CFE6FFDACFE6FFE1CFD9FF71
:100CE000E2CFDAFFE652E652FC0EDBCFDEFFDBCFCF
:100CF000DDFF010EDB50D76EDF50D66EE552E552B8
:0C0D0000E552E5CFDAFFE7CFD9FF120083
:040D0C00D9CFE6FF56
:100D1000DACFE6FFE1CFD9FFE2CFDAFFFD0EDB50FD
:100D20007F0BD56ED76AD66AF294FD0EDBAE02D089
:100D3000F28A01D0F29AD58EE552E5CFDAFFE7CFFD
:040D4000D9FF1200C5
:0C0D4400D9CFE6FFDACFE6FFE1CFD9FF00
:100D5000E2CFDAFF0C0EBD129396CA94FD0EDB5063
:100D6000CB6ECA84E552E5CFDAFFE7CFD9FF120098
:040D70009396120044
:0C0D7400000EF36E00EE00F0010E01D83E
:100D80001200EA6002D0EE6AFCD7F350E96012006C
:040D9000EE6AFCD734
:0C0D940010EE80F020EE80F0F86A0A9C5F
:100DA000FEEC04F003EC00F0BBEC01F0FBD712000A
:100DB00030393A30383A3131004D617220313520C6
:050DC00032303230006A
:0B0DC5000103012000010103020002F5
:070DD0003985312E330000CC
:010DD700001B
:060DD800A6B2FED71200D6
:020DDE00000013
:060DE00000B90DB00DF09A
:020000040030CA
:01000100C638
:010002000FEE
:010003001EDE
:01000500807A
:010006008574
:0100080000F7
:01000900C036
:01000A0003F2
:01000B00E014
:01000C0003F0
:01000D0040B2
:00000001FF
