:020000040000FA
:0600000096EF06F012006D
:020006001200E6
:06000800F3EF02F012000C
:02000E000200EE
:10001000760D0000F3000000080000006F0D0000E6
:08002000FC00000001000000DB
:08002800D9CFE6FFE1CFD9FFBB
:10003000FE0EDB500B6E0C6AFC0EDBCF0EF00EC01A
:100040000DF00E6A0D500B1818E10E500C1815E14A
:10005000FD0EDB500F6E106AFF0EE76EFB0EDBCF5E
:1000600011F0FC0EE7501116126A11500F1805E13D
:100070001250101802E1010E01D0000EE552E7CF38
:10008000D9FF1200D9CFE6FFE1CFD9FF050EE12657
:100090000001F551030A65E0010A44E0030A2FE07C
:1000A000010A01E003D175EC03F00001010EF56FC8
:1000B000060EF36FF46BE66EF4C0E6FF5D0E0B6E9A
:1000C0000D0E0C6E0D6A0BC0E6FFE66E0DC0E6FF6E
:1000D0007FD9B4EC05F00E6E070EE15E0E50F3C052
:1000E000E6FFF4C0E6FF74D9BCEC03F0E552E5523C
:1000F000E552E552F3CFF3F0F4CFF4F0D7D0E66A4F
:1001000085EC03F0E552D880010E0454000E65D949
:1001100001E3CCD0898289800001C96BCA6B0001E0
:10012000020E1BD03CD901E3C1D0ACA2FED7000126
:10013000C951EA6ACD0FE96E000EEA22EF50AD6EAA
:10014000C92B0001F3510001C95D000E0001F455F7
:10015000ECE3ACA2FED70001030EF56F7DEC03F0DB
:10016000A5D01DD901E3A2D089908992070E000184
:10017000F36FF46BE8500001CA5D000E0001F45506
:1001800001E283D00001CD0501E07FD0030ECE5DFA
:1001900001E07BD0F3C00BF0F4C00CF0020E0B5E5C
:1001A000000E0C5A0BC0E6FF0CC0E6FF11D902ECA2
:1001B00004F0E552E552E552E552DE52F3CFDEFFA0
:1001C000F4CFDDFFDD52F3C0E9FFF4C0EAFF020E19
:1001D000E95EF7D8EFCF0DF00DC00EF00D6AF3C059
:1001E000E9FFF4C0EAFFE906ECD8EFCF0FF0FF0E0D
:1001F0000F1400010D100B6E030E0BC0DBFF040E7D
:100200000EC0DBFF010EDBCF0BF0020EDBCF0CF0DC
:10021000030EDB500B182CE1040EDB500C1828E108
:10022000D1C0DFFFDF501FE08A70DF50060A18E000
:10023000030A13E0010A0EE0070A09E0010A04E0DC
:10024000030A0001640E12D00001780E0FD00001E5
:100250008C0E0CD00001A00E09D00001B40E06D007
:100260000001C80E03D08A8000014A0EFA6F06D042
:10027000132A000E1422152216228A90FAC0CBF0FF
:10028000000197D80001F56B11D0E66A9DEC03F0F0
:10029000E552D880D00E0454070E9FD807E28A900A
:1002A0000001F56B0001F00ECB6F83D8000E0B6ED2
:1002B000050EE15C02E2E16AE552E16E0B50E552A7
:1002C000E7CFD9FF1200F29E000EE66EE66AD7EC89
:1002D00005F0E552E5523F0802E1440E01D03F0E21
:1002E000E66E000EE66EE66A52EC05F0E552E55267
:1002F000E552B8EC06F0F28E0001C891000C7F0EBA
:10030000C16ED08E926A120E936EF19E8A908A947C
:10031000950EE66E52EC06F0E552E80EE66E670EBC
:10032000E66E36EC06F0E552E552E50EE66EF9ECC7
:1003300005F0E552600EE66EF60EE66E1AEC06F07B
:10034000E552E552410EE66E6EEC06F0E552000114
:10035000F00ECB6F2ED8FC0EE66E3F0EE66E69EC0B
:1003600004F0E552E552400EE66EE66A6C0EE66E6B
:100370000DEC05F0E552E552E552AA96AC94B06A50
:10038000400EAF6EF28AF1849D809F8002D8F28E7B
:1003900012000001C891000CB2DF74DEFED7E66ADD
:1003A0009DEC03F0E552D880030E0454000EEDEFEF
:1003B00001F0CB51E66EE66A85EC05F0E552E552B8
:1003C0001200000EEA5ACD0EE926000EEA221200B3
:1003D000CD0EE66E000EE66E12000554000E0654B9
:0603E000000E075412009C
:0A03E60000C1814001C0804101C048
:1003F000804100C1814001C0804100C1814000C1F5
:10040000814001C0804101C0804100C1814000C1E4
:10041000814001C0804100C1814001C0804101C0D4
:10042000804100C1814001C0804100C1814000C1C4
:10043000814001C0804100C1814001C0804101C0B4
:10044000804100C1814000C1814001C0804101C0A4
:10045000804100C1814001C0804100C1814000C194
:10046000814001C0804101C0804100C1814000C184
:10047000814001C0804100C1814001C0804101C074
:10048000804100C1814000C1814001C0804101C064
:10049000804100C1814001C0804100C1814000C154
:1004A000814001C0804100C1814001C0804101C044
:1004B000804100C1814001C0804100C1814000C134
:1004C000814001C0804101C0804100C1814000C124
:1004D000814001C0804100C1814001C0804101C014
:1004E000804100C1814000C0C101C30302C2C606F1
:1004F00007C705C5C404CC0C0DCD0FCFCE0E0ACA5C
:10050000CB0BC90908C8D81819D91BDBDA1A1EDEAB
:10051000DF1FDD1D1CDC14D4D515D71716D6D2125B
:1005200013D311D1D010F03031F133F3F23236F66B
:10053000F737F53534F43CFCFD3DFF3F3EFEFA3A1B
:100540003BFB39F9F83828E8E929EB2B2AEAEE2EAB
:100550002FEF2DEDEC2CE42425E527E7E62622E21B
:10056000E323E12120E0A06061A163A3A26266A66B
:10057000A767A56564A46CACAD6DAF6F6EAEAA6ADB
:100580006BAB69A9A86878B8B979BB7B7ABABE7E2B
:100590007FBF7DBDBC7CB47475B577B7B67672B2DB
:1005A000B373B17170B0509091519353529296566B
:1005B0005797559594549C5C5D9D5F9F9E5E5A9A9B
:1005C0009B5B99595898884849894B8B8A4A4E8E2B
:1005D0008F4F8D4D4C8C448485458747468682429B
:0605E000438341818040CD
:0A05E600DACFE4FFE2CFDAFFE9CF3D
:1005F000E4FFEACFE4FFF6CFE4FFF7CFE4FFF5CF67
:10060000E4FFF3CFE4FFF4CFE4FFFACFE4FF00EE22
:1006100000F00B0EE80403E3EECFE4FFFBD7E65255
:100620009EAA21D0AECFCCF0AB50020B03E1AB5071
:10063000040B0BE00001CC6BAB98AB880001FC51C4
:10064000FC2B030810E2FC6B0ED00001CA51EA6AD1
:10065000CD0FE96E000EEA22CCC0EFFFCA2B140EBC
:10066000CA5D01E3CA6B9EA00FD09E90600EE66E3D
:10067000F60EE66E1AEC06F0E552E5520001C02BCC
:10068000000EC123C223C323F2A40FD0F294E80EBC
:10069000E66E670EE66E36EC06F0E552E5520001B6
:1006A000C42B000EC523C623C7239EB29E929EB4C0
:1006B0009E94E55200EE0AF00B0EE80403E3E5CF4A
:1006C000EDFFFBD7E5CFFAFFE5CFF4FFE5CFF3FF72
:1006D000E5CFF5FFE5CFF7FFE5CFF6FFE5CFEAFF82
:1006E000E5CFE9FFE5CFDAFF1100F29E0001C46B10
:1006F000C56BC66BC76BF28E1200F29E0001C06B19
:10070000C16BC26BC36BF28E12002FD80AE1F29E4E
:10071000C4C0EBF0C5C0ECF0C6C0EDF0C7C0EEF051
:10072000F28EEBC004F0ECC005F0EDC006F0EEC0B8
:1007300007F0E552E7CFD9FF120017D80AE1F29E81
:10074000C0C0EFF0C1C0F0F0C2C0F1F0C3C0F2F021
:10075000F28EEFC004F0F0C005F0F1C006F0F2C078
:1007600007F0E552E7CFD9FF1200D9CFE6FFE1CF7E
:08077000D9FFFE0EDB50120060
:08077800D9CFE6FFE1CFD9FF64
:10078000020EE126FB0EDBCFE6FFFC0EDBCFE6FF21
:10079000FD0EDBCFE6FFFE0EDBCFE6FF33D8E552E2
:1007A000E552E552E552F3CFDEFFF4CFDDFFDECFB9
:1007B0000DF0DDCF0EF00EC00DF00E6A82D801E311
:1007C000DB2A74D8DECF0DF0DDCF0EF0FF0E0D1654
:1007D000000E0E1676D801E3DB2A68D8FB0EDBCFBD
:1007E0000BF0FC0EDBCF0CF00BC0F3FF0CC0F4FFE2
:1007F000020EE15C02E2E16AE552E16EE552E7CF0A
:10080000D9FF1200D9CFE6FFE1CFD9FF030EE126D1
:10081000DF68010EDB68FB0EDBCF0BF0DB06FC0EA6
:10082000DBCF0CF001E2DB060B500C102AE0FD0ED2
:10083000DBCFE9FFDB2AFE0EDBCFEAFF01E3DB2A99
:10084000EF50DF18E76E020EE7CFDBFF010EDBCFC4
:10085000E6FF020EDB50F76AE60FF66E030EF72294
:100860000800F550E552E718DF6E020EDB50F76A1C
:10087000E60FF66E040EF7220800010EF5CFDBFF3F
:10088000CAD7DFCF0DF00DC00EF00D6A010EDB50A0
:100890000D10F36E0EC0F4FF030EE15C02E2E16A9C
:1008A000E552E16EE552E7CFD9FF1200FD0EDB50B5
:1008B0000B24E96EFE0EDB500C20EA6E0DC0EFFF3C
:1008C0001200FB0EDBCF0BF0DB2AFC0EDBCF0CF0B3
:0208D000120014
:0E08D200D9CFE6FFDACFE6FFE1CFD9FFE2CFC4
:1008E000DAFFE652E652E652F8CF01F0F6CF02F018
:1008F000FD0EDB80DB82DB84DB86DB88DB8AFC0EA3
:10090000DB84DB86DB88DB8ADB8CDB8EFD0EDBCFDA
:10091000E6FFC00EBD10E552E714BD6EFC0EDBCF46
:10092000E6FF0F0EBD10E552E714BD6E3F0E0B6ED5
:10093000FD0EDB500B5C02E1939613D0FD0EDB50F5
:10094000BF0803E1939693940CD0FD0EDB507F0813
:1009500004E0FD0EDB50FF0804E193969394939C12
:10096000939E01C0F8FF02C0F6FFE552E552E55242
:0C097000E552E5CFDAFFE7CFD9FF120017
:04097C000E0EF66EF7
:10098000000EF76E000EF86E00010900F550E66FDC
:100990000900F550E76F03E1E66701D03DD009009B
:1009A000F550E16F0900F550E26F0900F550E36F73
:1009B00009000900F550E96E0900F550EA6E0900DA
:1009C00009000900F550E46F0900F550E56F0900D2
:1009D0000900F6CFE8F0F7CFE9F0F8CFEAF0E1C090
:1009E000F6FFE2C0F7FFE3C0F8FF0001E45302E1C5
:1009F000E55307E00900F550EE6EE407F8E2E5077D
:100A0000F9D7E8C0F6FFE9C0F7FFEAC0F8FF000138
:0A0A1000E607000EE75BBFD71200F7
:060A1A00D9CFE6FFDACFA0
:100A2000E6FFE1CFD9FFE2CFDAFFAC6AAB6AFD0E99
:100A3000DBB0AC88DBA202D0AC8CAB8CDBB4AC8E70
:100A4000DBA602D0AB8801D0AB8ADBB8AC849E9821
:100A5000DBBAAB86DBAC02D09D8A01D09D9A9E9A10
:100A6000DBAE02D09D8801D09D98FB0EDB50AF6EAF
:100A7000FB0EFC0EDBCF0CF00CC00BF00C6A0B5025
:100A8000B06EAC8AAB8E93929388AC50100B04E09E
:100A9000AC50800B01E19382E552E5CFDAFFE7CF5E
:040AA000D9FF120068
:0C0AA400D9CFE6FFDACFE6FFE1CFD9FFA3
:100AB000E2CFDAFFE652DF6AFF0EE76EFC0EDBCF15
:100AC0000BF0E7500B160B50A96EFB0EDB50A86E17
:100AD000A69EA69CA684F250800B01E0010EDF6E5C
:100AE000F29E550EA76EAA0EA76EA682A6B2FED7DC
:100AF000DF50E8B0F28EE8A0F29EA694E552E552EF
:0A0B0000E5CFDAFFE7CFD9FF1200BE
:060B0A00D9CFE6FFDACFAF
:100B1000E6FFE1CFD9FFE2CFDAFFE652E652FC0E64
:100B2000DBCF0BF0FD0EDBCF0CF0060ED8900B36B2
:100B30000C36E804FBE10BC0DEFF0CC0DDFF010E4C
:100B4000DB50BE6EDF50E840E8403F0B300B0B6ED1
:100B5000CF0EBD140B10BD6EE552E552E552E5CF48
:080B6000DAFFE7CFD9FF120014
:080B6800FB0EE3CFF6FFFC0ECB
:100B7000E3CFF7FFFD0EE3CFF8FFFE0EE3CFE9FF73
:100B8000FF0EE3CFEAFFE9CFF3FFEACFF4FFF90E60
:100B9000E35003E1FA0EE35009E0F90EE30602E246
:0E0BA000FA0EE3060900F5CFEEFFF1D71200C2
:020BAE00D9CF9D
:100BB000E6FFDACFE6FFE1CFD9FFE2CFDAFFFF0EA3
:100BC000E76EFC0EDBCF0BF0FD0EDBCF0CF0E75039
:100BD0000B160C6A0B50A96EA69CA69EA680000060
:100BE0000000A85000D0E552E5CFDAFFE7CFD9FFEB
:020BF0001200F1
:0E0BF200D9CFE6FFDACFE6FFE1CFD9FFE2CFA1
:100C0000DAFFFD0EDB507E0BCD6EFD0EDBAC02D0AD
:100C1000CD8E01D0CD9ECF6ACE6A9E90DBAE02D043
:100C20009D8001D09D90CD80E552E5CFDAFFE7CFE2
:040C3000D9FF1200D6
:0C0C3400D9CFE6FFDACFE6FFE1CFD9FF11
:100C4000E2CFDAFFE652E652FC0EDBCFDEFFDBCF6F
:100C5000DDFF010EDB50CF6EDF50CE6EE552E55268
:0C0C6000E552E5CFDAFFE7CFD9FF120024
:040C6C00D9CFE6FFF7
:100C7000DACFE6FFE1CFD9FFE2CFDAFFE652E65264
:100C8000FC0EDBCFDEFFDBCFDDFF010EDB50D76ECE
:100C9000DF50D66EE552E552E552E5CFDAFFE7CFF9
:040CA000D9FF120066
:0C0CA400D9CFE6FFDACFE6FFE1CFD9FFA1
:100CB000E2CFDAFFFD0EDB507F0BD56ED76AD66A26
:100CC000F294FD0EDBAE02D0F28A01D0F29AD58EFC
:0C0CD000E552E5CFDAFFE7CFD9FF1200B4
:040CDC00D9CFE6FF87
:100CE000DACFE6FFE1CFD9FFE2CFDAFF0C0EBD127B
:100CF0009396CA94FD0EDB50CB6ECA84E552E5CFC5
:0C0D0000DAFFE7CFD9FF12009396120033
:040D0C00000EF36E74
:100D100000EE00F0010E01D81200EA6002D0EE6A87
:0C0D2000FCD7F350E9601200EE6AFCD72B
:040D2C0010EE80F055
:100D300020EE80F0F86A0A9CBEEC04F003EC00F0B0
:080D4000CCEC01F0FBD712001E
:080D480031343A35303A3334FE
:0D0D5000004D61722031332032303230000E
:030D5D000103018E
:0F0D600020000101030200023985312E3200000C
:010D6F000083
:060D7000A6B2FED712003E
:080D7600000000510D480DF0D2
:020000040030CA
:01000100C638
:010002000FEE
:010003001EDE
:01000500807A
:010006008574
:0100080000F7
:01000900C036
:01000A0003F2
:01000B00E014
:01000C0003F0
:01000D0040B2
:00000001FF
