:020000040000FA
:06000000DEEF05F0120026
:020006001200E6
:06000800ADEF02F0120052
:02000E000200EE
:10001000080C0000EB00000009000000010C0000CB
:08002000FC00000001000000DB
:08002800D9CFE6FFE1CFD9FFBB
:10003000FE0EDB500B6E0C6AFC0EDBCF0EF00EC01A
:100040000DF00E6A0D500B1818E10E500C1815E14A
:10005000FD0EDB500F6E106AFF0EE76EFB0EDBCF5E
:1000600011F0FC0EE7501116126A11500F1805E13D
:100070001250101802E1010E01D0000EE552E7CF38
:10008000D9FF1200D9CFE6FFE1CFD9FF030EE12659
:100090000001EE51030A40E0010A1EE0030A09E0F4
:1000A000010A01E0B5D02FEC03F00001010EEE6F64
:1000B000AFD0E66A3FEC03F0E552D880010E04545D
:1000C000000E45D901E3A4D0898289800001C96B63
:1000D000CA6B0001020E1CD024D901E399D0ACA256
:1000E000FED70001C951F76AED0FF66E0B0EF7222D
:1000F0000800F550AD6EC92BC9510B6E0C6A080E85
:100100000B5C000E0C58EBE3ACA2FED70001030E13
:10011000EE6F37EC03F07CD004D901E379D08990FD
:1001200089920001CA510B6E0C6A070E0B5C000E1F
:100130000C585DE3050EE66EE66ACD0EE66E000E27
:10014000E66E76EC03F0E552E552E552E552DE52FA
:10015000F3CFDEFFF4CFDDFFDD52D1C0DFFFDF5094
:1001600035E08A70DF50060A2CE0030A25E0010A18
:100170001EE0070A17E0010A0AE0030A03E0E3D8D9
:100180002FE002D0E0D82CE00001640E28D0010E50
:10019000DBCFE6FF020EDBCFE6FFB8D821E000019F
:1001A000780E1DD0D0D81CE000018C0E18D0CBD812
:1001B00017E00001A00E13D0C6D812E00001B40E63
:1001C0000ED0C1D80DE00001C80E09D0440EE66E75
:1001D000B80EE66E9BD804E08A8000014A0EF36FE9
:1001E000F3C0CBF00001A7D80001EE6B11D0E66A96
:1001F00057EC03F0E552D880D00E0454070EA7D870
:1002000007E28A900001EE6B0001F00ECB6F93D8ED
:10021000000E0B6E030EE15C02E2E16AE552E16E54
:100220000B50E552E7CFD9FF1200F29E000EE66EAA
:10023000E66A1FEC05F0E552E5523F0802E1440E84
:1002400001D03F0EE66E000EE66EE66ABDEC04F0ED
:10025000E552E552E55201EC06F0F28E0001C8913C
:10026000000C7F0EC16ED08E926A120E936EF19EBC
:100270008A908A940001E80EEC6F670EED6F950E80
:10028000E66E9AEC05F0E552ECC0E6FFEDC0E6FF45
:100290007EEC05F0E552E552E50EE66E41EC05F028
:1002A000E552600EE66EF60EE66E62EC05F0E55283
:1002B000E552410EE66EB6EC05F0E5520001F00E97
:1002C000CB6F39D8FC0EE66E3F0EE66ED4EC03F031
:1002D000E552E552400EE66EE66A6C0EE66E78EC8C
:1002E00004F0E552E552E552AA96AC94B06A400E8D
:1002F000AF6EF28AF1849D809F8002D8F28E120048
:100300000001C891000CADDFBDDEFED7D3C0E6FF13
:10031000D2C0E6FF89DEE552E552E552E55200091A
:100320001200E66A57EC03F0E552D880030E04543D
:10033000000EA7EF01F0CB51E66EE66AF0EC04F098
:10034000E552E5521200E66AE66886EF01F00554D0
:0A035000000E0654000E07541200C0
:06035A0000C1814001C05A
:10036000804101C0804100C1814001C0804100C185
:10037000814000C1814001C0804101C0804100C175
:10038000814000C1814001C0804100C1814001C065
:10039000804101C0804100C1814001C0804100C155
:1003A000814000C1814001C0804100C1814001C045
:1003B000804101C0804100C1814000C1814001C035
:1003C000804101C0804100C1814001C0804100C125
:1003D000814000C1814001C0804101C0804100C115
:1003E000814000C1814001C0804100C1814001C005
:1003F000804101C0804100C1814000C1814001C0F5
:10040000804101C0804100C1814001C0804100C1E4
:10041000814000C1814001C0804100C1814001C0D4
:10042000804101C0804100C1814001C0804100C1C4
:10043000814000C1814001C0804101C0804100C1B4
:10044000814000C1814001C0804100C1814001C0A4
:10045000804101C0804100C1814000C0C101C3038F
:1004600002C2C60607C705C5C404CC0C0DCD0FCF0C
:10047000CE0E0ACACB0BC90908C8D81819D91BDB7C
:10048000DA1A1EDEDF1FDD1D1CDC14D4D515D717CC
:1004900016D6D21213D311D1D010F03031F133F37C
:1004A000F23236F6F737F53534F43CFCFD3DFF3FCC
:1004B0003EFEFA3A3BFB39F9F83828E8E929EB2BFC
:1004C0002AEAEE2E2FEF2DEDEC2CE42425E527E78C
:1004D000E62622E2E323E12120E0A06061A163A3FC
:1004E000A26266A6A767A56564A46CACAD6DAF6F8C
:1004F0006EAEAA6A6BAB69A9A86878B8B979BB7BFC
:100500007ABABE7E7FBF7DBDBC7CB47475B577B74B
:10051000B67672B2B373B17170B05090915193537B
:10052000529296565797559594549C5C5D9D5F9F4B
:100530009E5E5A9A9B5B99595898884849894B8B7B
:100540008A4A4E8E8F4F8D4D4C8C4484854587470B
:0A05500046868242438341818040C9
:06055A00DACFE4FFE2CF5E
:10056000DAFFE9CFE4FFEACFE4FFF6CFE4FFF7CF0D
:10057000E4FFF5CFE4FFF3CFE4FFF4CFE4FFFACFDD
:10058000E4FF00EE00F00B0EE80403E3EECFE4FF1F
:10059000FBD7E6529EAA21D0AECFCCF0AB50020BD7
:1005A00003E1AB50040B0BE00001CC6BAB98AB88C4
:1005B0000001FC51FC2B030810E2FC6B0ED0000183
:1005C000CA51EA6ACD0FE96E000EEA22CCC0EFFFF5
:1005D000CA2B140ECA5D01E3CA6B9EA00FD09E9079
:1005E000600EE66EF60EE66E62EC05F0E552E55240
:1005F0000001C02B000EC123C223C323F2A40FD0DD
:10060000F294ECC0E6FFEDC0E6FF7EEC05F0E552AB
:10061000E5520001C42B000EC523C623C7239EB29A
:100620009E929EB49E94E55200EE0AF00B0EE804F2
:1006300003E3E5CFEDFFFBD7E5CFFAFFE5CFF4FF0E
:10064000E5CFF3FFE5CFF5FFE5CFF7FFE5CFF6FF09
:10065000E5CFEAFFE5CFE9FFE5CFDAFF1100F29E33
:100660000001C46BC56BC66BC76BF28E1200F29EA5
:100670000001C06BC16BC26BC36BF28E12002FD82E
:100680000AE1F29EC4C0F4F0C5C0F5F0C6C0F6F0B1
:10069000C7C0F7F0F28EF4C004F0F5C005F0F6C064
:1006A00006F0F7C007F0E552E7CFD9FF120017D8E0
:1006B0000AE1F29EC0C0F8F0C1C0F9F0C2C0FAF081
:1006C000C3C0FBF0F28EF8C004F0F9C005F0FAC028
:1006D00006F0FBC007F0E552E7CFD9FF1200D9CFF3
:0C06E000E6FFE1CFD9FFFE0EDB50120058
:0406EC00D9CFE6FF7D
:1006F000E1CFD9FF040EE126DF68010EDB68FB0EB7
:10070000DBCF0BF0DB06FC0EDBCF0CF001E2DB06EF
:100710000B500C102CE0FD0EDBCFE9FFDB2AFE0EA8
:10072000DBCFEAFF01E3DB2AEF50DF18E66ED9509A
:10073000020FE96EDACFEAFFE552E750EE6EED6A9E
:10074000010EDBCFE6FF29D85A0EF626030EF7225C
:100750000800F550E552E718DF6E1FD85A0EF6264E
:10076000040EF7220800010EF5CFDBFFC8D7010EFB
:10077000DBCFE6FFDF50000EF350E552E7100C6AC6
:10078000F36E0CC0F4FF040EE15C02E2E16AE55294
:10079000E16EE552E7CFD9FF1200020EDBCFF6FF84
:0807A000030EDBCFF7FF12008E
:0807A800D9CFE6FFDACFE6FF2E
:1007B000E1CFD9FFE2CFDAFFE652E652E652F8CFB8
:1007C00001F0F6CF02F0FD0EDB80DB82DB84DB86FE
:1007D000DB88DB8AFC0EDB84DB86DB88DB8ADB8C58
:1007E000DB8EFD0EDBCFE6FFC00EBD10E552E71439
:1007F000BD6EFC0EDBCFE6FF0F0EBD10E552E71419
:10080000BD6E3F0E0B6EFD0EDB500B5C02E193964E
:1008100013D0FD0EDB50BF0803E1939693940CD0E8
:10082000FD0EDB507F0804E0FD0EDB50FF0804E105
:1008300093969394939C939E01C0F8FF02C0F6FF99
:10084000E552E552E552E552E5CFDAFFE7CFD9FFB1
:02085000120094
:0E0852000E0EF66E000EF76E000EF86E000130
:100860000900F550E66F0900F550E76F03E1E66710
:1008700001D03DD00900F550E16F0900F550E26F5D
:100880000900F550E36F09000900F550E96E090011
:10089000F550EA6E090009000900F550E46F0900FF
:1008A000F550E56F09000900F6CFE8F0F7CFE9F061
:1008B000F8CFEAF0E1C0F6FFE2C0F7FFE3C0F8FFCF
:1008C0000001E45302E1E55307E00900F550EE6E44
:1008D000E407F8E2E507F9D7E8C0F6FFE9C0F7FF5B
:1008E000EAC0F8FF0001E607000EE75BBFD7120081
:1008F000D9CFE6FFDACFE6FFE1CFD9FFE2CFDAFFCB
:10090000AC6AAB6AFD0EDBB0AC88DBA202D0AC8C6B
:10091000AB8CDBB4AC8EDBA602D0AB8801D0AB8A4B
:10092000DBB8AC849E98DBBAAB86DBAC02D09D8A88
:1009300001D09D9A9E9ADBAE02D09D8801D09D98F1
:10094000FB0EDB50AF6EFB0EFC0EDBCF0CF00CC0D1
:100950000BF00C6A0B50B06EAC8AAB8E93929388FE
:10096000AC50100B04E0AC50800B01E19382E552D7
:0A097000E5CFDAFFE7CFD9FF120050
:06097A00D9CFE6FFDACF41
:10098000E6FFE1CFD9FFE2CFDAFFE652DF6AFF0EE2
:10099000E76EFC0EDBCF0BF0E7500B160B50A96E89
:1009A000FB0EDB50A86EA69EA69CA684F250800B80
:1009B00001E0010EDF6EF29E550EA76EAA0EA76E25
:1009C000A682A6B2FED7DF50E8B0F28EE8A0F29E73
:1009D000A694E552E552E5CFDAFFE7CFD9FF120042
:1009E000D9CFE6FFDACFE6FFE1CFD9FFE2CFDAFFDA
:1009F000E652E652FC0EDBCF0BF0FD0EDBCF0CF027
:100A0000060ED8900B360C36E804FBE10BC0DEFF77
:100A10000CC0DDFF010EDB50BE6EDF50E840E84049
:100A20003F0B300B0B6ECF0EBD140B10BD6EE5529D
:0E0A3000E552E552E5CFDAFFE7CFD9FF12001D
:020A3E00D9CF0E
:100A4000E6FFDACFE6FFE1CFD9FFE2CFDAFFFF0E14
:100A5000E76EFC0EDBCF0BF0FD0EDBCF0CF0E750AA
:100A60000B160C6A0B50A96EA69CA69EA6800000D1
:100A70000000A85000D0E552E5CFDAFFE7CFD9FF5C
:020A8000120062
:0E0A8200D9CFE6FFDACFE6FFE1CFD9FFE2CF12
:100A9000DAFFFD0EDB507E0BCD6EFD0EDBAC02D01F
:100AA000CD8E01D0CD9ECF6ACE6A9E90DBAE02D0B5
:100AB0009D8001D09D90CD80E552E5CFDAFFE7CF54
:040AC000D9FF120048
:0C0AC400D9CFE6FFDACFE6FFE1CFD9FF83
:100AD000E2CFDAFFE652E652FC0EDBCFDEFFDBCFE1
:100AE000DDFF010EDB50CF6EDF50CE6EE552E552DA
:0C0AF000E552E5CFDAFFE7CFD9FF120096
:040AFC00D9CFE6FF69
:100B0000DACFE6FFE1CFD9FFE2CFDAFFE652E652D5
:100B1000FC0EDBCFDEFFDBCFDDFF010EDB50D76E3F
:100B2000DF50D66EE552E552E552E5CFDAFFE7CF6A
:040B3000D9FF1200D7
:0C0B3400D9CFE6FFDACFE6FFE1CFD9FF12
:100B4000E2CFDAFFFD0EDB507F0BD56ED76AD66A97
:100B5000F294FD0EDBAE02D0F28A01D0F29AD58E6D
:0C0B6000E552E5CFDAFFE7CFD9FF120025
:040B6C00D9CFE6FFF8
:100B7000DACFE6FFE1CFD9FFE2CFDAFF0C0EBD12EC
:100B80009396CA94FD0EDB50CB6ECA84E552E5CF36
:0C0B9000DAFFE7CFD9FF120093961200A5
:040B9C00000EF36EE6
:100BA00000EE00F0010E01D81200EA6002D0EE6AF9
:0C0BB000FCD7F350E9601200EE6AFCD79D
:040BBC0010EE80F0C7
:100BC00020EE80F0F86A0A9C29EC04F003EC00F0B7
:080BD00083EC01F0FBD71200D9
:080BD80030393A35363A333169
:0D0BE000004D617220313220323032300081
:030BED0001030100
:100BF000200001843C01030200023985312E3000BF
:010C000000F3
:010C010000F2
:060C0200A6B2FED71200AD
:080C080000DC8500E10BD80BB4
:010C1000F0F3
:020000040030CA
:01000100C638
:010002000FEE
:010003001EDE
:01000500807A
:010006008574
:0100080000F7
:01000900C036
:01000A0003F2
:01000B00E014
:01000C0003F0
:01000D0040B2
:00000001FF
