:020000040000FA
:06000000D9EF03F012002D
:020006001200E6
:0600080006EF01F01200FA
:02000E000200EE
:10001000FE070000F300000008000000F7070000E2
:08002000FB00000001000000DC
:080028000001F651030A3DE05E
:10003000010A1CE0030A08E0010A5FE188EC01F014
:100040000001010EF66F000CE66A98EC01F0E55233
:10005000D880020E0454000ED3D84FE289828980E2
:100060000001C96BCA6B0001020E1BD0BFD845E26C
:10007000ACA2FED70001C951F76AE30FF66E070E76
:10008000F7220800F550AD6EC92BC9510B6E0C6AF2
:10009000080E0B5C000E0C58EBE3ACA2FED700017F
:1000A000030EF66F90EC01F0000CA0D826E28990C8
:1000B00089920001CA510B6E0C6A070E0B5C000E90
:1000C0000C580BE3D15103E08A70D20E02D08A9013
:1000D000320E83D80001F66B000CE66AB0EC01F03A
:1000E000E552D880D00E0454070E8AD806E28A90D2
:1000F0000001F66B0001640E70D8000CF29E000E39
:10010000E66EE66A1AEC03F0E552E5523F0802E1BA
:10011000440E01D03F0EE66E000EE66EE66AB8ECC5
:1001200002F0E552E552E552FCEC03F0F28E0001DC
:10013000C891000C7F0EC16ED08E926A120E936E23
:100140008A908A940001E80EF46F670EF56F950EA1
:10015000E66E95EC03F0E552F4C0E6FFF5C0E6FF6D
:1001600079EC03F0E552E552E50EE66E3CEC03F067
:10017000E552600EE66EF60EE66E5DEC03F0E552BB
:10018000E552410EE66EB1EC03F0E5520001640E5B
:1001900024D8FC0EE66E3F0EE66ECFEC01F0E55281
:1001A000E552400EE66EE66A6C0EE66E73EC02F007
:1001B000E552E552E552AA96AC94B06A400EAF6E95
:1001C000F28AF1849D809F8002D8F28E1200000195
:1001D000C891000CAFDF28DFFED7CB6FCB51E66EA6
:1001E000E66AEBEC02F0E552E5521200E66AB0EC8A
:1001F00001F0E552D880030E0454000E00EF01F028
:0C0200000554000E0654000E07541200B6
:04020C00DACFE4FF62
:10021000E2CFDAFFE9CFE4FFEACFE4FFF6CFE4FF75
:10022000F7CFE4FFF5CFE4FFF3CFE4FFF4CFE4FF33
:10023000FACFE4FF00EE00F00B0EE80403E3EECF8C
:10024000E4FFFBD7E6529EAA21D0AECFCCF0AB5054
:10025000020B03E1AB50040B0BE00001CC6BAB983D
:10026000AB880001FB51FB2B030810E2FB6B0ED0A7
:100270000001CA51EA6ACD0FE96E000EEA22CCC035
:10028000EFFFCA2B140ECA5D01E3CA6B9EA00FD00C
:100290009E90600EE66EF60EE66E5DEC03F0E552A3
:1002A000E5520001C02B000EC123C223C323F2A4D8
:1002B0000FD0F294F4C0E6FFF5C0E6FF79EC03F04E
:1002C000E552E5520001C42B000EC523C623C72307
:1002D0009EB29E929EB49E94E55200EE0AF00B0EE2
:1002E000E80403E3E5CFEDFFFBD7E5CFFAFFE5CF69
:1002F000F4FFE5CFF3FFE5CFF5FFE5CFF7FFE5CF5F
:10030000F6FFE5CFEAFFE5CFE9FFE5CFDAFF110021
:10031000F29E0001C46BC56BC66BC76BF28E1200F8
:10032000F29E0001C06BC16BC26BC36BF28E1200F8
:100330002FD80AE1F29EC4C0EBF0C5C0ECF0C6C0F5
:10034000EDF0C7C0EEF0F28EEBC004F0ECC005F0AB
:10035000EDC006F0EEC007F0E552E7CFD9FF12007E
:1003600017D80AE1F29EC0C0EFF0C1C0F0F0C2C0E1
:10037000F1F0C3C0F2F0F28EEFC004F0F0C005F06F
:10038000F1C006F0F2C007F0E552E7CFD9FF120046
:0E039000D9CFE6FFE1CFD9FFFE0EDB50120001
:02039E00D9CFB5
:1003A000E6FFDACFE6FFE1CFD9FFE2CFDAFFE65290
:1003B000E652E652F8CF01F0F6CF02F0FD0EDB80F8
:1003C000DB82DB84DB86DB88DB8AFC0EDB84DB867E
:1003D000DB88DB8ADB8CDB8EFD0EDBCFE6FFC00E1D
:1003E000BD10E552E714BD6EFC0EDBCFE6FF0F0E2D
:1003F000BD10E552E714BD6E3F0E0B6EFD0EDB50D7
:100400000B5C02E1939613D0FD0EDB50BF0803E1B5
:10041000939693940CD0FD0EDB507F0804E0FD0E04
:10042000DB50FF0804E193969394939C939E01C044
:10043000F8FF02C0F6FFE552E552E552E552E5CF7E
:08044000DAFFE7CFD9FF12003B
:080448000E0EF66E000EF76EB9
:10045000000EF86E00010900F550E66F0900F55036
:10046000E76F03E1E66701D03DD00900F550E16F89
:100470000900F550E26F0900F550E36F090009002B
:10048000F550E96E0900F550EA6E0900090009000F
:10049000F550E46F0900F550E56F09000900F6CF4B
:1004A000E8F0F7CFE9F0F8CFEAF0E1C0F6FFE2C0FC
:1004B000F7FFE3C0F8FF0001E45302E1E55307E072
:1004C0000900F550EE6EE407F8E2E507F9D7E8C059
:1004D000F6FFE9C0F7FFEAC0F8FF0001E607000EEB
:0604E000E75BBFD712002C
:0A04E600D9CFE6FFDACFE6FFE1CF41
:1004F000D9FFE2CFDAFFAC6AAB6AFD0EDBB0AC88A5
:10050000DBA202D0AC8CAB8CDBB4AC8EDBA602D011
:10051000AB8801D0AB8ADBB8AC849E98DBBAAB86E3
:10052000DBAC02D09D8A01D09D9A9E9ADBAE02D0B0
:100530009D8801D09D98FB0EDB50AF6EFB0EFC0E2C
:10054000DBCF0CF00CC00BF00C6A0B50B06EAC8A19
:10055000AB8E93929388AC50100B04E0AC50800BA0
:1005600001E19382E552E5CFDAFFE7CFD9FF120030
:10057000D9CFE6FFDACFE6FFE1CFD9FFE2CFDAFF4E
:10058000E652DF6AFF0EE76EFC0EDBCF0BF0E750A2
:100590000B160B50A96EFB0EDB50A86EA69EA69CF8
:1005A000A684F250800B01E0010EDF6EF29E550E24
:1005B000A76EAA0EA76EA682A6B2FED7DF50E8B03D
:1005C000F28EE8A0F29EA694E552E552E5CFDAFF5E
:0605D000E7CFD9FF120085
:0A05D600D9CFE6FFDACFE6FFE1CF50
:1005E000D9FFE2CFDAFFE652E652FC0EDBCF0BF08A
:1005F000FD0EDBCF0CF0060ED8900B360C36E8045F
:10060000FBE10BC0DEFF0CC0DDFF010EDB50BE6E58
:10061000DF50E840E8403F0B300B0B6ECF0EBD14AF
:100620000B10BD6EE552E552E552E5CFDAFFE7CF9C
:04063000D9FF1200DC
:0C063400D9CFE6FFDACFE6FFE1CFD9FF17
:10064000E2CFDAFFFF0EE76EFC0EDBCF0BF0FD0E04
:10065000DBCF0CF0E7500B160C6A0B50A96EA69C72
:10066000A69EA68000000000A85000D0E552E5CF6D
:08067000DAFFE7CFD9FF120009
:08067800D9CFE6FFDACFE6FF5F
:10068000E1CFD9FFE2CFDAFFFD0EDB507E0BCD6E5E
:10069000FD0EDBAC02D0CD8E01D0CD9ECF6ACE6AEE
:1006A0009E90DBAE02D09D8001D09D90CD80E55222
:0A06B000E5CFDAFFE7CFD9FF120013
:0606BA00D9CFE6FFDACF04
:1006C000E6FFE1CFD9FFE2CFDAFFE652E652FC0EB9
:1006D000DBCFDEFFDBCFDDFF010EDB50CF6EDF5067
:1006E000CE6EE552E552E552E5CFDAFFE7CFD9FF0E
:0206F0001200F6
:0E06F200D9CFE6FFDACFE6FFE1CFD9FFE2CFA6
:10070000DAFFE652E652FC0EDBCFDEFFDBCFDDFF89
:10071000010EDB50D76EDF50D66EE552E552E55242
:0A072000E5CFDAFFE7CFD9FF1200A2
:06072A00D9CFE6FFDACF93
:10073000E6FFE1CFD9FFE2CFDAFFFD0EDB507F0B02
:10074000D56ED76AD66AF294FD0EDBAE02D0F28A7D
:1007500001D0F29AD58EE552E5CFDAFFE7CFD9FF87
:02076000120085
:0E076200D9CFE6FFDACFE6FFE1CFD9FFE2CF35
:10077000DAFF0C0EBD129396CA94FD0EDB50CB6EC1
:10078000CA84E552E5CFDAFFE7CFD9FF120093968E
:02079000120055
:0E079200000EF36E00EE00F0010E01D8120012
:1007A000EA6002D0EE6AFCD7F350E9601200EE6A0C
:0207B000FCD774
:0E07B20010EE80F020EE80F0F86A0A9C24EC35
:0E07C00002F003EC00F0EAEC00F0FBD71200B0
:0207CE003231C6
:1007D0003A30313A3036004D6172203039203230B3
:0307E000323000B4
:0D07E300010301200001843C01030200021B
:0707F0003985312E300000B5
:0107F7000001
:0607F800A6B2FED71200BC
:0207FE0000DC1D
:060800008500D707CE07BA
:020000040030CA
:01000100C638
:010002000FEE
:010003001EDE
:01000500807A
:010006008574
:0100080000F7
:01000900C036
:01000A0003F2
:01000B00E014
:01000C0003F0
:01000D0040B2
:00000001FF
