:020000040000FA
:060000007EEF06F0120085
:020006001200E6
:06000800D1EF02F012002E
:02000E000200EE
:10001000460D0000F3000000080000003F0D000046
:08002000FC00000001000000DB
:08002800D9CFE6FFE1CFD9FFBB
:10003000FE0EDB501F6E206AFC0EDBCF22F022C0CA
:1000400021F0226A21501F1818E12250201815E1D2
:10005000FD0EDB50236E246AFF0EE76EFB0EDBCF36
:1000600025F0FC0EE7502516266A2550231805E1D9
:100070002650241802E1010E01D0000EE552E7CF10
:10008000D9FF1200D9CFE6FFE1CFD9FF050EE12657
:100090000001F551030A6BE0010A4AE0030A35E06A
:1000A000010A01E0EDD053EC03F00001010EF56F01
:1000B000060EF36FF46BE66EF4C0E6FF2D0E1F6EB6
:1000C0000D0E206E216A1FC0E6FFE66E21C0E6FF1E
:1000D000040EE66E000EE66E9CEC05F0226E070E36
:1000E000E15E2250F3C0E6FFF4C0E6FF040EE66EC8
:1000F000000EE66E9AEC03F0E552E552E552E55249
:10010000F3CFF3F0F4CFF4F0BBD0E66A63EC03F086
:10011000E552D880010E1854000E3DD901E3B0D04D
:10012000898289800001C96BCA6B0001020E1BD055
:1001300020D901E3A5D0ACA2FED70001C951EA6ADB
:10014000040FE96E000EEA22EF50AD6EC92B0001DC
:10015000F3510001C95D000E0001F455ECE3ACA2BF
:10016000FED70001030EF56F5BEC03F089D001D9D7
:1001700001E386D0899089920001CA511F6E206ADE
:10018000070E1F5C000E20586AE3CD0568E1030EE0
:10019000CE5D65E1050EE66EE66ACD0EE66E000EFA
:1001A000E66EE0EC03F0E552E552E552E552DE5230
:1001B000F3CFDEFFF4CFDDFFDD520001D251000EA0
:1001C000F350D311E66ED950030FE96EDACFEAFF90
:1001D000E552E750EE6EED6A010EDBCF1FF0020E26
:1001E000DBCF20F0030EDB501F182CE1040EDB5098
:1001F000201828E1D1C0DFFFDF501FE08A70DF50F8
:10020000060A18E0030A13E0010A0EE0070A09E0F3
:10021000010A04E0030A0001640E12D00001780E06
:100220000FD000018C0E0CD00001A00E09D00001EF
:10023000B40E06D00001C80E03D08A8000014A0E19
:10024000FA6F06D0002A000E0122022203228A90B1
:10025000FAC0CBF0000197D80001F56B11D0E66A27
:100260007BEC03F0E552D880D00E1854070E93D8DB
:1002700007E28A900001F56B0001F00ECB6F83D886
:10028000000E1F6E050EE15C02E2E16AE552E16ECE
:100290001F50E552E7CFD9FF1200F29E000EE66E26
:1002A000E66ABFEC05F0E552E5523F0802E1440E74
:1002B00001D03F0EE66E000EE66EE66A3AEC05F0FF
:1002C000E552E552E552A0EC06F0F28E0001C8912D
:1002D000000C7F0EC16ED08E926A120E936EF19E4C
:1002E0008A908A94950EE66E3AEC06F0E552E80E96
:1002F000E66E670EE66E1EEC06F0E552E552E50E80
:10030000E66EE1EC05F0E552600EE66EF60EE66E86
:1003100002EC06F0E552E552410EE66E56EC06F0B0
:10032000E5520001F00ECB6F2ED8FC0EE66E3F0EAC
:10033000E66E51EC04F0E552E552400EE66EE66AD8
:100340006C0EE66EF5EC04F0E552E552E552AA9625
:10035000AC94B06A400EAF6EF28AF1849D809F80AB
:1003600002D8F28E12000001C891000CB2DF8ADEC2
:10037000FED7E66A7BEC03F0E552D880030E1854F2
:10038000000ECBEF01F0CB51E66EE66A6DEC05F0A6
:10039000E552E55212001954000E1A54000E1B5477
:0203A000120049
:0E03A20000C1814001C0804101C0804100C106
:1003B000814001C0804100C1814000C1814001C035
:1003C000804101C0804100C1814000C1814001C025
:1003D000804100C1814001C0804101C0804100C115
:1003E000814001C0804100C1814000C1814001C005
:1003F000804100C1814001C0804101C0804100C1F5
:10040000814000C1814001C0804101C0804100C1E4
:10041000814001C0804100C1814000C1814001C0D4
:10042000804101C0804100C1814000C1814001C0C4
:10043000804100C1814001C0804101C0804100C1B4
:10044000814000C1814001C0804101C0804100C1A4
:10045000814001C0804100C1814000C1814001C094
:10046000804100C1814001C0804101C0804100C184
:10047000814001C0804100C1814000C1814001C074
:10048000804101C0804100C1814000C1814001C064
:10049000804100C1814001C0804101C0804100C154
:1004A000814000C0C101C30302C2C60607C705C51B
:1004B000C404CC0C0DCD0FCFCE0E0ACACB0BC9098C
:1004C00008C8D81819D91BDBDA1A1EDEDF1FDD1D9C
:1004D0001CDC14D4D515D71716D6D21213D311D1CC
:1004E000D010F03031F133F3F23236F6F737F5351C
:1004F00034F43CFCFD3DFF3F3EFEFA3A3BFB39F94C
:10050000F83828E8E929EB2B2AEAEE2E2FEF2DED1B
:10051000EC2CE42425E527E7E62622E2E323E1218B
:1005200020E0A06061A163A3A26266A6A767A5659B
:1005300064A46CACAD6DAF6F6EAEAA6A6BAB69A90B
:10054000A86878B8B979BB7B7ABABE7E7FBF7DBD1B
:10055000BC7CB47475B577B7B67672B2B373B1714B
:1005600070B050909151935352929656579755951B
:1005700094549C5C5D9D5F9F9E5E5A9A9B5B9959CB
:100580005898884849894B8B8A4A4E8E8F4F8D4D9B
:100590004C8C44848545874746868242438341810B
:0205A000804099
:0E05A200DACFE4FFE2CFDAFFE9CFE4FFEACFE1
:1005B000E4FFF6CFE4FFF7CFE4FFF5CFE4FFF3CF9E
:1005C000E4FFF4CFE4FFFACFE4FF00EE14F00B0EEB
:1005D000E80403E3EECFE4FFFBD7E6529EAA21D066
:1005E000AECFCCF0AB50020B03E1AB50040B0BE0F1
:1005F0000001CC6BAB98AB880001FC51FC2B0308CD
:1006000010E2FC6B0ED00001CA51EA6ACD0FE96E10
:10061000000EEA22CCC0EFFFCA2B140ECA5D01E324
:10062000CA6B9EA00FD09E90600EE66EF60EE66E30
:1006300002EC06F0E552E5520001C02B000EC1238A
:10064000C223C323F2A40FD0F294E80EE66E670E25
:10065000E66E1EEC06F0E552E5520001C42B000EDA
:10066000C523C623C7239EB29E929EB49E94E55294
:1006700000EE1EF00B0EE80403E3E5CFEDFFFBD721
:10068000E5CFFAFFE5CFF4FFE5CFF3FFE5CFF5FFC8
:10069000E5CFF7FFE5CFF6FFE5CFEAFFE5CFE9FFCE
:1006A000E5CFDAFF1100F29E0001C46BC56BC66B8B
:1006B000C76BF28E1200F29E0001C06BC16BC26B61
:1006C000C36BF28E12002FD80AE1F29EC4C0EBF089
:1006D000C5C0ECF0C6C0EDF0C7C0EEF0F28EEBC0C6
:1006E00018F0ECC019F0EDC01AF0EEC01BF0E552A6
:1006F000E7CFD9FF120017D80AE1F29EC0C0EFF091
:10070000C1C0F0F0C2C0F1F0C3C0F2F0F28EEFC091
:1007100018F0F0C019F0F1C01AF0F2C01BF0E55269
:10072000E7CFD9FF1200D9CFE6FFE1CFD9FFFE0E08
:04073000DB50120088
:0C073400D9CFE6FFE1CFD9FF020EE1268D
:10074000FB0EDBCFE6FFFC0EDBCFE6FFFD0EDBCFC3
:10075000E6FFFE0EDBCFE6FF33D8E552E552E55269
:10076000E552F3CFDEFFF4CFDDFFDECF21F0DDCFAA
:1007700022F022C021F0226A85D801E3DB2A77D853
:10078000DECF21F0DDCF22F0FF0E2116000E221663
:1007900079D801E3DB2A6BD8FB0EDBCF1FF0FC0E10
:1007A000DBCF20F01FC0F3FF20C0F4FF020EE15C9E
:1007B00002E2E16AE552E16EE552E7CFD9FF1200AD
:1007C000D9CFE6FFE1CFD9FF040EE126DF68010EA5
:1007D000DB68FB0EDBCF1FF0DB06FC0EDBCF20F06F
:1007E00001E2DB061F5020102CE0FD0EDBCFE9FFFD
:1007F000DB2AFE0EDBCFEAFF01E3DB2AEF50DF1836
:10080000E66ED950020FE96EDACFEAFFE552E75003
:10081000EE6EED6A010EDBCFE6FF3CD8A20EF626A7
:10082000030EF7220800F550E552E718DF6E32D8C4
:10083000A20EF626040EF7220800010EF5CFDBFF0C
:10084000C8D7010EDBCFE6FFDF50000EF350E552B4
:10085000E710206AF36E20C0F4FF040EE15C02E2B0
:10086000E16AE552E16EE552E7CFD9FF1200FD0ED5
:10087000DB501F24E96EFE0EDB502020EA6E21C003
:10088000EFFF1200FB0EDBCF1FF0DB2AFC0EDBCFED
:1008900020F01200020EDBCFF6FF030EDBCFF7FFD6
:0208A000120044
:0E08A200D9CFE6FFDACFE6FFE1CFD9FFE2CFF4
:1008B000DAFFE652E652E652F8CF01F0F6CF02F048
:1008C000FD0EDB80DB82DB84DB86DB88DB8AFC0ED3
:1008D000DB84DB86DB88DB8ADB8CDB8EFD0EDBCF0B
:1008E000E6FFC00EBD10E552E714BD6EFC0EDBCF77
:1008F000E6FF0F0EBD10E552E714BD6E3F0E1F6EF2
:10090000FD0EDB501F5C02E1939613D0FD0EDB5011
:10091000BF0803E1939693940CD0FD0EDB507F0843
:1009200004E0FD0EDB50FF0804E193969394939C42
:10093000939E01C0F8FF02C0F6FFE552E552E55272
:0C094000E552E5CFDAFFE7CFD9FF120047
:04094C000E0EF66E27
:10095000000EF76E000EF86E00010900F550E66F0C
:100960000900F550E76F03E1E66701D03DD00900CB
:10097000F550E16F0900F550E26F0900F550E36FA3
:1009800009000900F550E96E0900F550EA6E09000A
:1009900009000900F550E46F0900F550E56F090002
:1009A0000900F6CFE8F0F7CFE9F0F8CFEAF0E1C0C0
:1009B000F6FFE2C0F7FFE3C0F8FF0001E45302E1F5
:1009C000E55307E00900F550EE6EE407F8E2E507AD
:1009D000F9D7E8C0F6FFE9C0F7FFEAC0F8FF000169
:0A09E000E607000EE75BBFD7120028
:0609EA00D9CFE6FFDACFD1
:1009F000E6FFE1CFD9FFE2CFDAFFAC6AAB6AFD0ECA
:100A0000DBB0AC88DBA202D0AC8CAB8CDBB4AC8EA0
:100A1000DBA602D0AB8801D0AB8ADBB8AC849E9851
:100A2000DBBAAB86DBAC02D09D8A01D09D9A9E9A40
:100A3000DBAE02D09D8801D09D98FB0EDB50AF6EDF
:100A4000FB0EFC0EDBCF20F020C01FF0206A1F50F1
:100A5000B06EAC8AAB8E93929388AC50100B04E0CE
:100A6000AC50800B01E19382E552E5CFDAFFE7CF8E
:040A7000D9FF120098
:0C0A7400D9CFE6FFDACFE6FFE1CFD9FFD3
:100A8000E2CFDAFFE652DF6AFF0EE76EFC0EDBCF45
:100A90001FF0E7501F161F50A96EFB0EDB50A86E0B
:100AA000A69EA69CA684F250800B01E0010EDF6E8C
:100AB000F29E550EA76EAA0EA76EA682A6B2FED70C
:100AC000DF50E8B0F28EE8A0F29EA694E552E5521F
:0A0AD000E5CFDAFFE7CFD9FF1200EF
:060ADA00D9CFE6FFDACFE0
:100AE000E6FFE1CFD9FFE2CFDAFFE652E652FC0E95
:100AF000DBCF1FF0FD0EDBCF20F0060ED8901F36A7
:100B00002036E804FBE11FC0DEFF20C0DDFF010E40
:100B1000DB50BE6EDF50E840E8403F0B300B1F6EED
:100B2000CF0EBD141F10BD6EE552E552E552E5CF64
:080B3000DAFFE7CFD9FF120044
:080B3800FB0EE3CFF6FFFC0EFB
:100B4000E3CFF7FFFD0EE3CFF8FFFE0EE3CFE9FFA3
:100B5000FF0EE3CFEAFFE9CFF3FFEACFF4FFF90E90
:100B6000E35003E1FA0EE35009E0F90EE30602E276
:0E0B7000FA0EE3060900F5CFEEFFF1D71200F2
:020B7E00D9CFCD
:100B8000E6FFDACFE6FFE1CFD9FFE2CFDAFFFF0ED3
:100B9000E76EFC0EDBCF1FF0FD0EDBCF20F0E75041
:100BA0001F16206A1F50A96EA69CA69EA680000054
:100BB0000000A85000D0E552E5CFDAFFE7CFD9FF1B
:020BC000120021
:0E0BC200D9CFE6FFDACFE6FFE1CFD9FFE2CFD1
:100BD000DAFFFD0EDB507E0BCD6EFD0EDBAC02D0DE
:100BE000CD8E01D0CD9ECF6ACE6A9E90DBAE02D074
:100BF0009D8001D09D90CD80E552E5CFDAFFE7CF13
:040C0000D9FF120006
:0C0C0400D9CFE6FFDACFE6FFE1CFD9FF41
:100C1000E2CFDAFFE652E652FC0EDBCFDEFFDBCF9F
:100C2000DDFF010EDB50CF6EDF50CE6EE552E55298
:0C0C3000E552E5CFDAFFE7CFD9FF120054
:040C3C00D9CFE6FF27
:100C4000DACFE6FFE1CFD9FFE2CFDAFFE652E65294
:100C5000FC0EDBCFDEFFDBCFDDFF010EDB50D76EFE
:100C6000DF50D66EE552E552E552E5CFDAFFE7CF29
:040C7000D9FF120096
:0C0C7400D9CFE6FFDACFE6FFE1CFD9FFD1
:100C8000E2CFDAFFFD0EDB507F0BD56ED76AD66A56
:100C9000F294FD0EDBAE02D0F28A01D0F29AD58E2C
:0C0CA000E552E5CFDAFFE7CFD9FF1200E4
:040CAC00D9CFE6FFB7
:100CB000DACFE6FFE1CFD9FFE2CFDAFF0C0EBD12AB
:100CC0009396CA94FD0EDB50CB6ECA84E552E5CFF5
:0C0CD000DAFFE7CFD9FF12009396120064
:040CDC00000EF36EA5
:100CE00000EE00F0010E01D81200EA6002D0EE6AB8
:0C0CF000FCD7F350E9601200EE6AFCD75C
:040CFC0010EE80F086
:100D000020EE80F0F86A1E9CA6EC04F003EC00F0E4
:080D1000B6EC01F0FBD7120064
:080D180031313A30343A33382E
:0D0D2000004D61722031332032303230003E
:030D2D00010301BE
:0F0D300020000101030200023985312E3100003D
:010D3F0000B3
:060D4000A6B2FED712006E
:080D4600000000210D180DF062
:020000040030CA
:01000100C638
:010002000FEE
:010003001EDE
:01000500807A
:010006008574
:0100080000F7
:01000900C036
:01000A0003F2
:01000B00E014
:01000C0003F0
:01000D0040B2
:00000001FF
