:020000040000FA
:060000000DEF06F01200F6
:020006001200E6
:0600080014EF00F01200ED
:02000E000200EE
:100010005C0C0000C00000001E000000570C000037
:08002000F800000005000000DB
:08002800DACFE4FFE2CFDAFFBA
:10003000E9CFE4FFEACFE4FFF6CFE4FFF7CFE4FF38
:10004000F5CFE4FFF3CFE4FFF4CFE4FFFACFE4FF12
:1000500000EE06F0020EE80403E3EECFE4FFFBD768
:10006000E652D9CFE6FFE1CFD9FF020EE1269EAAE4
:1000700057D10001CF2B000ED023AECFEBF0AB5009
:10008000020B03E1AB50040B0BE00001EB6BAB98F0
:10009000AB880001FA51FA2B030807E2FA6B05D08E
:1000A0000001E8BF02D0EBC0ADFF0001EB5104E15D
:1000B000010E0001D86FD96B3F0E0001EB5D07E127
:1000C0000001F92BF951090804E20001E88F000151
:1000D000F96B0001EBAF23D03F0EEB15E66ED8C0F5
:1000E000E9FFD9C0EAFFD890E936EA36C30EE9261F
:1000F000000EEA22E552E750EE6EED6A0001D82BC1
:10010000000ED923D93501E30BD1D8510608000ED2
:10011000D95501E305D1010ED86FD96B01D1010E7C
:100120000001D86FD96B0F0E0001C515046E056A6A
:10013000060ED89004360536E804FBE104500001B1
:10014000C7250001EC6F05500001C8210001ED6FCB
:100150000001EB510001C36FC46B0001C051690A7B
:1001600001E1B0D01C0A01E191D0130A73E0030A47
:1001700054E0170A01E0D2D00001D12BD15102087E
:1001800002E20001E8950001ED3545E2EC519008EE
:10019000010EED5540E2D890ED5104E68A0EEC5D7B
:1001A000020EED5938E20001E8850001D16B000133
:1001B000FB510001EC5D046EED510001FC55056E34
:1001C00004C0DEFFDD6EDECF04F0DDCF05F0800E73
:1001D00005140AE0DECFE6F0DDCFE7F00001E66DC2
:1001E000E71F000EE72304D0DECFE6F0DDCFE7F017
:1001F000ECC0FBF0EDC0FCF00001E651E45DE7511E
:10020000E55909E3E8B18A90E9810001D75101E09D
:1002100085D0898883D08A8081D00001D22BD251A9
:10022000020802E20001E8970001ED3501E376D013
:10023000EC51C808000EED5571E2D890ED5104E67E
:10024000840EEC5D030EED5969E20001E8870001C0
:10025000D26B64D00001D32BD351020802E200011B
:10026000E8990001ED355AE2EC51C808000EED5551
:1002700055E2D890ED5104E6060EEC5D040EED5902
:100280004DE20001E8890001D36B48D00001D42B76
:10029000D451020802E20001E89B0001ED353EE284
:1002A000EC51BC08020EED5539E2D890ED5104E650
:1002B0001A0EEC5D040EED5931E20001E88B0001ED
:1002C000D46B2CD00001E8830001D52BD551020856
:1002D00002E20001E89D0001ED3520E2EC512C081E
:1002E000010EED551BE2D890ED5104E6BC0EEC5D1D
:1002F000020EED5913E20001E88D0001D56B0001FB
:10030000E8BB0AD0E951010B09E00001D751D72B16
:10031000030804E2899802D00001D76BEBC0C0F05B
:100320009EA00ED09E90B20EE66EE70EE66EA9EC91
:1003300005F0E552E5520001D65102E10001E883E3
:10034000F2A4C6D0F294C1C0E6FFC2C0E6FFC5EC7D
:1003500005F0E552E55200010A0ED880CF55000E97
:10036000D05507E20001010ED66F0001CF6BD06BB4
:1003700009D00001D66B0001E89DE89BE899E89759
:10038000E8958A800001E251E31144E0DE51010B5F
:1003900002E00001EA710001DE51020B07E00001FA
:1003A000EA51010B02E0EA9301D0EA830001DE5139
:1003B000040B02E00001EA750001DE51080B07E0C2
:1003C0000001EA51040B02E0EA9701D0EA8700013C
:1003D000DE51100B02E00001EA790001DE51200B32
:1003E00007E00001EA51100B02E0EA9B01D0EA8B22
:1003F0000001DE51400B02E00001EA7D0001DE5108
:10040000800B37E00001EA51400B02E0EA9F31D057
:10041000EA8F2FD0DE51010B02E00001EA710001EA
:10042000DE51020B02E00001EA730001DE51040B11
:1004300002E00001EA750001DE51080B02E0000154
:10044000EA770001DE51100B02E00001EA790001B9
:10045000DE51200B02E00001EA7B0001DE51400B7F
:1004600002E00001EA7D0001DE51800B02E00001A4
:10047000EA7F0001F8510001EA5D2AE0EAA102D01A
:10048000899001D08980EAA302D0899201D0898223
:10049000EAA502D0899401D08984EAA702D089967E
:1004A00001D08986EAA902D08A9C01D08A8CEAAB65
:1004B00002D08A9E01D08A8EEAAD02D0899C01D0FA
:1004C000898CEAAF02D08A9A01D08A8AEAC0F8F011
:1004D000020EE15C02E2E16AE552E16EE552E7CF2D
:1004E000D9FFE55200EE07F0020EE80403E3E5CF82
:1004F000EDFFFBD7E5CFFAFFE5CFF4FFE5CFF3FF44
:10050000E5CFF5FFE5CFF7FFE5CFF6FFE5CFEAFF53
:0A051000E5CFE9FFE5CFDAFF1100A7
:06051A000001E8A3B3D0CC
:1005200089B802D0E66A59D90001E851400B01E0D0
:10053000010E036EE851200B01E0010E026EE8513E
:10054000100B01E0010E016EE851080B01E0010EF5
:10055000006EE851040B01E0010E001401140214B6
:1005600003141DE0E73504E2E6511E08000EE755CE
:1005700016E3E66A010EE66E0ED9E66A010E21D98F
:10058000020E24D9030E1DD9040E20D9050E19D947
:10059000060E1CD9070EF8D80001E8814ED0E8916C
:1005A000480E086EEE0E096EE8AB08D0010EE66E3E
:1005B000E66EF1D8E66A010E0DD903D0010EE66EA3
:1005C0000CD90001E8AD08D0010EE66EE66E040E0F
:1005D000FDD8050EFFD807D0010EE66EE66A040EC0
:1005E000F0D8050ED1D80001E8A708D0010EE66EBC
:1005F000E66E020EEBD8030EEDD807D0010EE66EC4
:10060000E66A020EDED8030EBFD80001E8A908D0C2
:10061000010EE66EE66E060ED9D8070EDBD807D0BF
:10062000010EE66EE66A060ECCD8070EADD8F29E35
:1006300008C0C1F009C0C2F0F28E0001E893E85191
:10064000400B400A01E0010E036EE851200B200A26
:1006500001E0010E026EE851100B100A01E0010EDC
:10066000016EE851080B080A01E0010E006EE85126
:10067000040B040A01E0010E001401140214031417
:1006800002E08988E991F36AF46A1200F29E8BD83D
:1006900006E1050E0001E46FE56B440E05D0010E86
:1006A0000001E46FE56B3F0EE66E000EE66EE66A53
:1006B0003FEC05F0E552E552E55226EC06F0F28EED
:1006C0000001E89F8988E45112007F0EC16ED08E30
:1006D000926A120E936E89908992899489968A9C67
:1006E0008A9E899C8A9A8A9089988DEC04F00001F0
:1006F000480EC16FEE0EC26F950EE66EE1EC05F08E
:10070000E552C1C0E6FFC2C0E6FFC5EC05F0E55208
:10071000E552E50EE66E88EC05F0E552B20EE66EA7
:10072000E70EE66EA9EC05F0E552E5528A962A0E30
:10073000E66EE66A7C0EE66EFAEC04F0E552E552EF
:10074000E552AA86AC84B06A2A0EAF6EF28AF184B2
:100750009D809F8002D8F28E12000001E893E891FC
:10076000E89F050EE46FE56B1ED804E1010E000161
:10077000E46FE56B0001E4511200A7DFCEDE00015B
:10078000E8AFFCD783DFFAD7E66EF3EC03F0E5526F
:10079000E552E5521200E66AF3EC03F0E552E55249
:1007A000E552E66A1200000EE66EE66A66EC05F0B7
:1007B000E552E5523F081200C40E085E090E095AC0
:1007C0001200E2DFE66A010EE66E1200DDDFE66A85
:1007D000E66A1200D9DFDCEF03F0E66ADCDF010E27
:0607E000E66EC4EF03F019
:0A07E600A3D8070869E3FD0EDB50FD
:1007F00010E0A4D802E0ABD8FEE1F350F31C006E89
:10080000016A00BE016800500001E0170150E117C5
:100810000ED094D802E09BD8FEE1F350006E016A3E
:1008200000BE016800500001E0130150E113FC0E0E
:10083000DB500FE083D802E08AD8FEE1F350006E6F
:10084000016A00BE016800500001DE130150DF1391
:1008500036D074D802E07BD8FEE1F350F31C006E72
:10086000016A00BE016800500001DE170150DF1769
:1008700065D802E06CD8FEE1F350F31C0001EA17E2
:10088000FE0EDB50E0C002F0E1C003F005E0D890BE
:1008900003320232E804FBE1010E0216000E0316D9
:1008A000FE0EDB5002C000F003C001F005E0D8905E
:1008B00000360136E804FBE100500001EA130001B4
:1008C000EA5141D034D8DEC000F0DFC001F005E0CD
:1008D000D89001320032E804FBE1010E001433D05D
:1008E000D9CFE6FFE1CFD9FFE652E2C0DFFFFE0E2F
:1008F000DB500001E26FE36BDF50E55224D017D8E4
:10090000E0C000F0E1C001F005E0D8900132003213
:10091000E804FBE1010E001416D00001EA690001B1
:10092000DE6BDF6BE06BE16BE26BE36B1200D9CF48
:10093000E6FFE1CFD9FFFE0EDB501200010EF36E91
:10094000FE0EDB501200E552E7CFD9FF1200D8901F
:06095000F336E806120078
:0A0956000E0EF66E000EF76E000E96
:10096000F86E00010900F550F36F0900F550F46FBF
:1009700003E1F36701D03DD00900F550EE6F0900A7
:10098000F550EF6F0900F550F06F09000900F550C0
:10099000E96E0900F550EA6E090009000900F550FA
:1009A000F16F0900F550F26F09000900F6CFF5F07C
:1009B000F7CFF6F0F8CFF7F0EEC0F6FFEFC0F7FF95
:1009C000F0C0F8FF0001F15302E1F25307E0090023
:1009D000F550EE6EF107F8E2F207F9D7F5C0F6FF31
:1009E000F6C0F7FFF7C0F8FF0001F307000EF45B55
:0409F000BFD712005B
:0C09F400D9CFE6FFDACFE6FFE1CFD9FF54
:100A0000E2CFDAFFAC6AAB6AFD0EDBB0AC88DBA2EA
:100A100002D0AC8CAB8CDBB4AC8EDBA602D0AB8846
:100A200001D0AB8ADBB8AC849E98DBBAAB86DBAC7A
:100A300002D09D8A01D09D9A9E9ADBAE02D09D88FD
:100A400001D09D98FB0EDB50AF6EFB0EFC0EDBCF92
:100A500001F001C000F0016A0050B06EAC8AAB8EAC
:100A600093929388AC50100B04E0AC50800B01E1E2
:0E0A70009382E552E5CFDAFFE7CFD9FF1200FF
:020A7E00D9CFCE
:100A8000E6FFDACFE6FFE1CFD9FFE2CFDAFFFF0ED4
:100A9000E76EFC0EDBCF00F0E75000160050A96EA9
:100AA000FB0EDB50A86EA69EA69CA684F29E550E59
:100AB000A76EAA0EA76EA682A6B2FED7F28EA69445
:0C0AC000E552E5CFDAFFE7CFD9FF1200C6
:040ACC00D9CFE6FF99
:100AD000DACFE6FFE1CFD9FFE2CFDAFFFF0EE76E14
:100AE000FC0EDBCF00F0FD0EDBCF01F0E75000166F
:100AF000016A0050A96EA69CA69EA6800000000078
:100B0000A85000D0E552E5CFDAFFE7CFD9FF1200B9
:100B1000D9CFE6FFDACFE6FFE1CFD9FFE2CFDAFFA8
:100B2000FD0EDB507E0BCD6EFD0EDBAC02D0CD8E0C
:100B300001D0CD9ECF6ACE6A9E90DBAE02D09D8062
:100B400001D09D90CD80E552E5CFDAFFE7CFD9FF08
:020B5000120091
:0E0B5200D9CFE6FFDACFE6FFE1CFD9FFE2CF41
:100B6000DAFFE652E652FC0EDBCFDEFFDBCFDDFF25
:100B7000010EDB50CF6EDF50CE6EE552E552E552EE
:0A0B8000E5CFDAFFE7CFD9FF12003E
:060B8A00D9CFE6FFDACF2F
:100B9000E6FFE1CFD9FFE2CFDAFFE652E652FC0EE4
:100BA000DBCFDEFFDBCFDDFF010EDB50D76EDF508A
:100BB000D66EE552E552E552E5CFDAFFE7CFD9FF31
:020BC000120021
:0E0BC200D9CFE6FFDACFE6FFE1CFD9FFE2CFD1
:100BD000DAFFFD0EDB507F0BD56ED76AD66AF29432
:100BE000FD0EDBAE02D0F28A01D0F29AD58EE5522C
:0A0BF000E5CFDAFFE7CFD9FF1200CE
:060BFA00000EF36E00EE98
:100C000000F0010E01D81200EA6002D0EE6AFCD7B3
:0A0C1000F350E9601200EE6AFCD711
:060C1A0010EE80F020EE58
:100C200080F0F86A079CABEC04F003EC00F0BDEC3C
:060C300003F0FBD71200E7
:0A0C360031393A33313A3237004FBA
:0B0C4000637420323220323031370064
:040C4C00A6B2FED777
:020C5000120090
:050C5200302E37000008
:050C5700FF0000000099
:040C5C0000DC850033
:100C60000000000000000000000000000000000084
:0A0C70000000000001003F0C360CEC
:020000040030CA
:01000100C539
:010002000FEE
:010003001EDE
:01000500807A
:010006008178
:0100080000F7
:01000900C036
:01000A0003F2
:01000B00E014
:01000C0003F0
:01000D0040B2
:00000001FF
