:020000040000FA
:06000000B9EF03F012004D
:020006001200E6
:06000800E6EF00F012001B
:02000E000200EE
:10001000B9070000EF00000008000000B80700006A
:08002000F700000001000000E0
:080028000001F251030A35E06A
:10003000010A1AE0030A08E0010A36E168EC01F05F
:100040000001010EF26F000CE66A78EC01F0E55257
:10005000D880500EB3D828E2899289800001C96BFC
:10006000CA6B0001020E15D08FD81EE2ACA2FED7DB
:10007000000192D8AD6E90D8190DF350050F95D8A8
:100080000001C92BC9510808F1E2ACA2FED700015A
:10009000030EF26F70EC01F0000C76D805E2899047
:1000A00089820001F26B8A70000CF29E000EE66EEF
:1000B000E66AFAEC02F0E552E5523F0802E1440E2E
:1000C00001D03F0EE66E000EE66EE66A98EC02F096
:1000D000E552E552E552D9EC03F0F28E0001C891E9
:1000E000000C7F0EC16ED08E926A120E936E8A90B3
:1000F0008A940001480EF06FEE0EF16F950EE66ED9
:1001000075EC03F0E552F0C0E6FFF1C0E6FF59ECF4
:1001100003F0E552E552E50EE66E1CEC03F0E55205
:10012000B20EE66EE70EE66E3DEC03F0E552E552E8
:10013000410EE66E91EC03F0E55200017F0E35D8DA
:10014000FC0EE66E3F0EE66EAFEC01F0E552E552B6
:10015000400EE66EE66A6C0EE66E53EC02F0E55277
:10016000E552E552AA96AC94B06A400EAF6EF28AA0
:10017000F1849D809F8002D8F28E12000001C89108
:10018000000CAFDF51DFFED7E66A90EC01F0E552DC
:10019000D880020EDEEF00F0C951F76AA30FF66EA9
:1001A000070EF7220800F5501200CB6FCB51E66E18
:1001B000E66ACBEC02F0E552E55212000454000E60
:0C01C0000554000E0654000E07541200F7
:0401CC00DACFE4FFA3
:1001D000E2CFDAFFE9CFE4FFEACFE4FFF6CFE4FFB6
:1001E000F7CFE4FFF5CFE4FFF3CFE4FFF4CFE4FF74
:1001F000FACFE4FF00EE00F00B0EE80403E3EECFCD
:10020000E4FFFBD7E6529EAA21D0AECFCCF0AB5094
:10021000020B03E1AB50040B0BE00001CC6BAB987D
:10022000AB880001F751F72B030810E2F76B0ED0F3
:100230000001CA51EA6ACD0FE96E000EEA22CCC075
:10024000EFFFCA2B100ECA5D01E3CA6B9EA00FD050
:100250009E90B20EE66EE70EE66E3DEC03F0E552C0
:10026000E5520001C02B000EC123C223C323F2A418
:100270000FD0F294F0C0E6FFF1C0E6FF59EC03F0B6
:10028000E552E5520001C42B000EC523C623C72347
:100290009EB29E929EB49E94E55200EE0AF00B0E22
:1002A000E80403E3E5CFEDFFFBD7E5CFFAFFE5CFA9
:1002B000F4FFE5CFF3FFE5CFF5FFE5CFF7FFE5CF9F
:1002C000F6FFE5CFEAFFE5CFE9FFE5CFDAFF110062
:1002D000F29E0001C46BC56BC66BC76BF28E120039
:1002E000F29E0001C06BC16BC26BC36BF28E120039
:1002F0002FD80AE1F29EC4C0E7F0C5C0E8F0C6C03E
:10030000E9F0C7C0EAF0F28EE7C004F0E8C005F0FB
:10031000E9C006F0EAC007F0E552E7CFD9FF1200C6
:1003200017D80AE1F29EC0C0EBF0C1C0ECF0C2C029
:10033000EDF0C3C0EEF0F28EEBC004F0ECC005F0BF
:10034000EDC006F0EEC007F0E552E7CFD9FF12008E
:0E035000D9CFE6FFE1CFD9FFFE0EDB50120041
:02035E00D9CFF5
:10036000E6FFDACFE6FFE1CFD9FFE2CFDAFFE652D0
:10037000E652E652F8CF01F0F6CF02F0FD0EDB8038
:10038000DB82DB84DB86DB88DB8AFC0EDB84DB86BE
:10039000DB88DB8ADB8CDB8EFD0EDBCFE6FFC00E5D
:1003A000BD10E552E714BD6EFC0EDBCFE6FF0F0E6D
:1003B000BD10E552E714BD6E3F0E0B6EFD0EDB5017
:1003C0000B5C02E1939613D0FD0EDB50BF0803E1F6
:1003D000939693940CD0FD0EDB507F0804E0FD0E45
:1003E000DB50FF0804E193969394939C939E01C085
:1003F000F8FF02C0F6FFE552E552E552E552E5CFBF
:08040000DAFFE7CFD9FF12007B
:080408000E0EF66E000EF76EF9
:10041000000EF86E00010900F550E26F0900F5507A
:10042000E36F03E1E26701D03DD00900F550DD6FD5
:100430000900F550DE6F0900F550DF6F0900090073
:10044000F550E96E0900F550EA6E0900090009004F
:10045000F550E06F0900F550E16F09000900F6CF93
:10046000E4F0F7CFE5F0F8CFE6F0DDC0F6FFDEC050
:10047000F7FFDFC0F8FF0001E05302E1E15307E0BE
:100480000900F550EE6EE007F8E2E107F9D7E4C0A5
:10049000F6FFE5C0F7FFE6C0F8FF0001E207000E37
:0604A000E35BBFD7120070
:0A04A600D9CFE6FFDACFE6FFE1CF81
:1004B000D9FFE2CFDAFFAC6AAB6AFD0EDBB0AC88E5
:1004C000DBA202D0AC8CAB8CDBB4AC8EDBA602D052
:1004D000AB8801D0AB8ADBB8AC849E98DBBAAB8624
:1004E000DBAC02D09D8A01D09D9A9E9ADBAE02D0F1
:1004F0009D8801D09D98FB0EDB50AF6EFB0EFC0E6D
:10050000DBCF0CF00CC00BF00C6A0B50B06EAC8A59
:10051000AB8E93929388AC50100B04E0AC50800BE0
:1005200001E19382E552E5CFDAFFE7CFD9FF120070
:10053000D9CFE6FFDACFE6FFE1CFD9FFE2CFDAFF8E
:10054000E652DF6AFF0EE76EFC0EDBCF0BF0E750E2
:100550000B160B50A96EFB0EDB50A86EA69EA69C38
:10056000A684F250800B01E0010EDF6EF29E550E64
:10057000A76EAA0EA76EA682A6B2FED7DF50E8B07D
:10058000F28EE8A0F29EA694E552E552E5CFDAFF9E
:06059000E7CFD9FF1200C5
:0A059600D9CFE6FFDACFE6FFE1CF90
:1005A000D9FFE2CFDAFFE652E652FC0EDBCF0BF0CA
:1005B000FD0EDBCF0CF0060ED8900B360C36E8049F
:1005C000FBE10BC0DEFF0CC0DDFF010EDB50BE6E99
:1005D000DF50E840E8403F0B300B0B6ECF0EBD14F0
:1005E0000B10BD6EE552E552E552E5CFDAFFE7CFDD
:0405F000D9FF12001D
:0C05F400D9CFE6FFDACFE6FFE1CFD9FF58
:10060000E2CFDAFFFF0EE76EFC0EDBCF0BF0FD0E44
:10061000DBCF0CF0E7500B160C6A0B50A96EA69CB2
:10062000A69EA68000000000A85000D0E552E5CFAD
:08063000DAFFE7CFD9FF120049
:08063800D9CFE6FFDACFE6FF9F
:10064000E1CFD9FFE2CFDAFFFD0EDB507E0BCD6E9E
:10065000FD0EDBAC02D0CD8E01D0CD9ECF6ACE6A2E
:100660009E90DBAE02D09D8001D09D90CD80E55262
:0A067000E5CFDAFFE7CFD9FF120053
:06067A00D9CFE6FFDACF44
:10068000E6FFE1CFD9FFE2CFDAFFE652E652FC0EF9
:10069000DBCFDEFFDBCFDDFF010EDB50CF6EDF50A7
:1006A000CE6EE552E552E552E5CFDAFFE7CFD9FF4E
:0206B000120036
:0E06B200D9CFE6FFDACFE6FFE1CFD9FFE2CFE6
:1006C000DAFFE652E652FC0EDBCFDEFFDBCFDDFFCA
:1006D000010EDB50D76EDF50D66EE552E552E55283
:0A06E000E5CFDAFFE7CFD9FF1200E3
:0606EA00D9CFE6FFDACFD4
:1006F000E6FFE1CFD9FFE2CFDAFFFD0EDB507F0B43
:10070000D56ED76AD66AF294FD0EDBAE02D0F28ABD
:1007100001D0F29AD58EE552E5CFDAFFE7CFD9FFC7
:020720001200C5
:0E072200D9CFE6FFDACFE6FFE1CFD9FFE2CF75
:10073000DAFF0C0EBD129396CA94FD0EDB50CB6E01
:10074000CA84E552E5CFDAFFE7CFD9FF12009396CE
:02075000120095
:0E075200000EF36E00EE00F0010E01D8120052
:10076000EA6002D0EE6AFCD7F350E9601200EE6A4C
:02077000FCD7B4
:0E07720010EE80F020EE80F0F86A0A9C04EC95
:0E07800002F003EC00F0C1EC00F0FBD7120019
:02078E00323106
:100790003A32353A3336004D6172203038203230EB
:0307A000323000F4
:0D07A3000103000A0001A4080809312E30EE
:0207B000000047
:0607B200A6B2FED7120002
:0107B8000040
:0707B90000DC850097078EAC
:0107C0000731
:020000040030CA
:01000100C638
:010002000FEE
:010003001EDE
:01000500807A
:010006008574
:0100080000F7
:01000900C036
:01000A0003F2
:01000B00E014
:01000C0003F0
:01000D0040B2
:00000001FF
